:020000040000FA
:060000000A128A110C280F
:10000800FE00030EF1000A08F2000A128A11FF2806
:100018000A128A110F28F70183010A128A11BF28D0
:10002800F3007308031D19281A28202883120313C4
:100038009F121F129F111F117303031D24282528C7
:100048002B28831203139F121F129F111F150230B2
:100058007306031D302831283728831203139F1293
:100068001F129F151F1103307306031D3C283D28DE
:100078004328831203139F121F129F151F15043064
:100088007306031D482849284F28831203139F121B
:100098001F169F111F1105307306031D542855287C
:1000A8005B28831203139F121F169F111F1506301A
:1000B8007306031D602861286728831203139F12A3
:1000C8001F169F151F1107307306031D6C286D2816
:1000D8007328831203139F121F169F151F150830CC
:1000E8007306031D782879287F28831203139F1627
:1000F8001F129F111F1109307306031D84288528BC
:100108008B28831203139F161F129F111F150A3085
:100118007306031D902891289728831203139F16AE
:100128001F129F151F110B307306031D9C289D2855
:10013800A328831203139F161F129F151F150C3037
:100148007306031DA828A928AF28831203139F1636
:100158001F169F111F110D307306031DB428B528F3
:10016800BB28831203139F161F169F111F15831296
:1001780003139F1408000A128A1144210A128A11D3
:100188000A128A112F210A128A1100300A128A11C2
:1001980014200A128A11F301F401F50124300A121D
:1001A8008A1119210A128A118312031385167708F6
:1001B80087000D3077020318E228E328E528860136
:1001C8000615133077020318EA28EB28F3280D30B8
:1001D8007702031CF028F128F328860186141330CF
:1001E8007702031CF828F928D82886010614D8288D
:1001F8000A128A110C28831203130C1F04290529DB
:1002080012290430F000F00B07290A29831203137E
:100218001E08F0007008F7000C139F1472088A007B
:10022800710E8300FE0E7E0E0900F600831603137E
:100238008712761D202921292529750894008715FC
:1002480029297308750494008711760874048312A9
:10025800031394000800831203131F179F138316B8
:1002680003131F129F129F13831203130C13831679
:1002780003130C178B170B17831203131F14080093
:1002880083160317880189010814013083160313A4
:100298008500860187018312031385018601080002
:04400E00D420FF3F7C
:00000001FF
