:020000040000FA
:060000000A128A110C280F
:10000800FE00030EF2000A08F3000A128A111628ED
:100018000A128A110F28F701F801F90183010A125F
:100028008A119628831203138C1D1B281C28252847
:1000380079080A128A11AC200A128A118312031352
:100048008C110B1C282829284E280B10861C2D28BB
:100058002E283B280130F1007108F707023077029B
:10006800031C372838283B28F7010130F902061C01
:100078003E283F284E280130F1007108F807023069
:100088007802031C482849284E28F8010130F1005D
:100098007108F90773088A00720E8300FE0E7E0E3F
:1000A8000900831603178801890183160313880141
:1000B800831203138501FF3083160313860083120E
:1000C80003138601880183160313871616149614E2
:1000D8008B158B170B170B10831203138C118316B8
:1000E80003138C158516080083120313A0008316CA
:1000F8000313871283120313201D832884288A2858
:1001080076088316031394008715902874087604DC
:1001180083160313940087118312031320087504B0
:10012800940008000A128A1155200A128A11F40153
:10013800F501F60124300A128A1178200A128A1170
:100148007908831203138800A4280A128A110C283C
:0C015800F00070088312031393000800ED
:04400E00D420FF3F7C
:00000001FF
