:020000040000FA
:060000000A128A11F22F22
:10000800F20083120313071072080A128A152020BF
:100018000A128A11831203138714C730F1001428B7
:10002800F10B1328172818288312031387100800C8
:100038008312031327088039A8002808B10027086D
:10004800A8002807A9002908B800A61F2C282D28D1
:100058002E28381438080319322833284328380A38
:10006800031D3728382840280030A7000030A60094
:100078000030A5000030A400A617A7014B280030C7
:10008800A7000030A6000030A5000030A400230817
:100098008039A8002808B1062308A8002807A90065
:1000A8002908B900A21F59285A285B283914390889
:1000B80003195F2860287028390A031D64286528F9
:1000C8006D280030A3000030A2000030A1000030ED
:1000D800A000A217A30178280030A3000030A200D6
:1000E8000030A1000030A0002308220421042004CD
:1000F800031D7F28802899280030A7000030A6001B
:100108000030A5000030A4008030A6047F30A7048A
:100118003108A8002808A7042708A3002608A20079
:100128002508A1002408A000F8293808031D9D28E7
:100138009E28A7280030A3000030A2000030A100AC
:100148000030A000F8293808A800A9012908AB0048
:1001580039082802AA00031CAB032A087F3EB20014
:100168002B080318013E003EB3002708B0002608FC
:10017800AF002508AE002408AD000030A70000300D
:10018800A6000030A5000030A4000030B700003001
:10019800B6000030B5000030B400B9011D29390897
:1001A8000319D728D828F8280130A8000310AD0D66
:1001B800AE0DAF0DB00DA80BDA280130A800031062
:1001C800A40DA50DA60DA70DA80BE328B71FED28B4
:1001D800EE28EF2824140130A8000310B40DB50D43
:1001E800B60DB70DA80BF12823083002031D062908
:1001F80022082F02031D062921082E02031D0629A5
:1002080020082D02031C09290A2919293717200853
:10021800AD022108031C210FAE022208031C220F85
:10022800AF022308031C230FB0020130A8002808DE
:10023800B9071A303902031C22292329D328300888
:100248002F042E042D0403192A292B294A29341492
:100258004A290130A8000310A40DA50DA60DA70D6D
:10026800A80B2F29B71F39293A293B292414013013
:10027800A8000310B40DB50DB60DB70DA80B3D2998
:10028800FF30B2070318B30AFF30B307A61F4D2982
:100298004E292D29B901B71F522953296F29FF303B
:1002A8003405A800FF303505A900FF303605AA003F
:1002B8007F303705AB002B082A04290428040319CA
:1002C800662967296A29B901B90A6F29241C6D2989
:1002D8006E296F2967293908031973297429A529F3
:1002E8000130A407003003180130A50700300318B7
:1002F8000130A607003003180130A707271C8529FD
:100308008629A5292408A8002508A9002608AA00E6
:100318002708AB000130AC002B0DAB0CAA0CA90CC4
:10032800A80CAC0B90292B08A7002A08A6002908BE
:10033800A5002808A4000130B2070318B30A00304A
:10034800B3073308803AFF0080307F02031DAE29CF
:10035800FF303202031CB129B229C029FF308312B1
:100368000313B2000030B3000030A7000030A6002D
:100378000030A5000030A400831203133308803A2C
:10038800FF0080307F02031DCB29013032020318A1
:10039800CE29CF29DC2983120313B201B30100301F
:1003A800A7000030A6000030A5000030A400B1016D
:1003B800831203133208A8002808B800381CE5295E
:1003C800E629E829A617EC297F30A8002808A60501
:1003D8003808A8000310280CA9002908A70031082C
:1003E800A8002808A70490280800730880398312F9
:1003F8000313A0002008F8007308A0002007A1003C
:100408002108FA00F21F092A0A2A0B2A7A147A0804
:1004180003190F2A102A202A7A0A031D142A152ADA
:100428001D2A0030F3000030F2000030F1000030E7
:10043800F000F217F301282A0030F3000030F20030
:100448000030F1000030F00077088039A000200863
:10045800F900790878060319322A332A342A7817DA
:100468007708A0002007A1002108F900F61F3D2AFF
:100478003E2A3F2A791479080319432A442A542A20
:10048800790A031D482A492A512A0030F70000300A
:10049800F6000030F5000030F400F617F7015C2A8A
:1004A8000030F7000030F6000030F5000030F400AE
:1004B8007A0879020318612A622AA62A781F652A0F
:1004C800662A6A2A8030A0002008F8067A08A00068
:1004D8002008FB007908A0002008FA007B08A0008B
:1004E8002008F9007008A0002008FB007408A0008C
:1004F8002008F0007B08A0002008F4007108A00084
:100508002008FB007508A0002008F1007B08A00067
:100518002008F5007208A0002008FB007608A0005B
:100528002008F2007B08A0002008F6007308A0004D
:100538002008FB007708A0002008F3007B08A00033
:100548002008F700FB017908A000A1012108A300F9
:100558007A082002A200031CA3032308803AFF00A4
:1005680080307F02031DBA2A1A302202031CBD2ADA
:10057800BE2AFF2A7308720471047004031DC52A79
:10058800C72A0130C82A003083120313A0002008AC
:10059800FB000030F3000030F2000030F1000030C2
:1005A800F0007908A0002008FA00052B7B1CDD2A42
:1005B800DE2AE92A7B0883120313A0000310200C0B
:1005C8000138A1002108FB00EB2A0310FB0C701C6A
:1005D800EE2AEF2AF02AFB17013083120313A0003A
:1005E800730DF30CF20CF10CF00CA00BF42A013093
:1005F800A0002008FA0779087A02031C042B052BAF
:10060800DA2A781B082B092B582B7A08031D0D2B87
:100618000E2B172B0030F3000030F2000030F100F1
:100628000030F000902C7408F007750803110318C7
:10063800013E0319202BF107760803110318013E28
:100648000319272BF207770803110318013E031932
:100658002E2BF307731C312B322B102C7B1C352BC4
:10066800362B412B7B0883120313A0000310200CA8
:100678000138A1002108FB00432B0310FB0C701C60
:10068800462B472B482BFB17013083120313A0007E
:10069800730DF30CF20CF10CF00CA00B4C2B013089
:1006A800A0002008FA07102C7308803AFF0077088A
:1006B800803A7F02031D6A2B76087202031D6A2B9B
:1006C80075087102031D6A2B7408700203186D2BDC
:1006D8006E2BC82BFF3083120313A000FF30A1003C
:1006E800FF30A200FF30A3007408A4007508A5001D
:1006F8007608A6007708A7007008A4027108031CF2
:10070800710F872B882BA5027208031C720F8D2B83
:100718008E2BA6027308031C730F932B942BA7022E
:100728002408A00725080318250F9B2B9C2BA1073D
:1007380026080318260FA12BA22BA20727080318A7
:10074800270AA3072308F3002208F2002108F10072
:100758002008F0008030A0002008F806FB09FB0AFA
:100768007B08031DB82BB92BD62B0130F0070030BE
:1007780003180130F107003003180130F207003088
:1007880003180130F307D62B7408F0027508031C10
:10079800750FF1027608031C760FF2027708031C26
:1007A800770FF3027308720471047004031DDD2BC4
:1007B800DE2B0C2C7B08031DE22BE32B0C2C0030CA
:1007C800F3000030F2000030F1000030F000902C0F
:1007D800013083120313A0000310F00DF10DF20D88
:1007E800F30DA00BF02BFB1FFA2BFB2BFC2B70142B
:1007F8007B1CFF2B002C032C0314FB0D052C031072
:10080800FB0D7A080319092C0A2C0C2C0130FA026A
:10081800F21F0F2C102CEC2BF901FB1F142C152C9C
:10082800232C7B087F3903191A2C1B2C1E2CF90149
:10083800F90A232C701C212C222C232C1B2C790820
:100848000319272C282C5E2C0130F00700300318E0
:100858000130F107003003180130F20700300318A7
:100868000130F307731C392C3A2C5E2C7008831264
:100878000313A0007108A1007208A2007308A30066
:100888000130A400230DA30CA20CA10CA00CA40BF6
:10089800462C2308F3002208F2002108F100200862
:1008A800F0007A0A0319592C5A2C5E2C0130A0004A
:1008B8002008FA077A0A0319622C632C682C7A0834
:1008C800031D672C682C762C0030F3000030F200F2
:1008D8000030F1000030F0007A08031D742C752CEC
:1008E800762CF8017A1C792C7A2C7C2CF217822C25
:1008F8007F3083120313A0002008F2057A088312C0
:100908000313A0000310200CA1002108F300F81F16
:100918008E2C8F2C902CF3170800831203132308B6
:100928008039F9007908A8002308F9007907FA0046
:100938007A08AE00A21FA12CA22CA32C2E142E08DC
:100948000319A72CA82CB72C2E0A031DAC2CAD2CF0
:10095800B52C0030A3000030A2000030A100003008
:10096800A000A217BF2C0030A3000030A200003066
:10097800A1000030A00027088039F9007908A806EE
:100988002708F9007907FA007A08AD00A61FCD2CD0
:10099800CE2CCF2C2D142D080319D32CD42CE32CBA
:1009A8002D0A031DD82CD92CE12C0030A7000030CB
:1009B800A6000030A5000030A400A617EB2C0030DC
:1009C800A7000030A6000030A5000030A4002D08C4
:1009D8000319EF2CF02CF52C2E08031DF42CF52C04
:1009E800FE2C0030A3000030A2000030A10000302F
:1009F800A000F12F2008F9007908F00026080A1253
:100A08008A15AC200A128A11710883120313B400E4
:100A18007008B3003308F900FA01FB01FC017C08F7
:100A2800AC007B08AB007A08AA007908A900340852
:100A3800F900FA01FB01FC017C08B2007B08B10057
:100A48007A08B0007908AF002108F9007908F000A9
:100A580025080A128A15AC200A128A117108831215
:100A68000313B4007008B3003308F900FA01FB015E
:100A7800FC017908A9077A0803110318013E031934
:100A8800462DAA077B0803110318013E03194D2DB3
:100A9800AB077C0803110318013E0319542DAC075A
:100AA8003408F900FA01FB01FC017908AF077A085C
:100AB80003110318013E0319622DB0077B080311C7
:100AC8000318013E0319692DB1077C0803110318A7
:100AD800013E0319702DB2072208F9007908F000C9
:100AE80024080A128A15AC200A128A117108831286
:100AF8000313B4007008B3003308F900FA01FB01CE
:100B0800FC017908A9077A0803110318013E0319A3
:100B18008E2DAA077B0803110318013E0319952D92
:100B2800AB077C0803110318013E03199C2DAC0781
:100B38003408F900FA01FB01FC017908AF077A08CB
:100B480003110318013E0319AA2DB0077B080311EE
:100B58000318013E0319B12DB1077C0803110318CE
:100B6800013E0319B82DB2070830F9000310A90D8A
:100B7800AA0DAB0DAC0DF90BBA2D2108F9007908B7
:100B8800F00024080A128A15AC200A128A1171088A
:100B980083120313B4007008B3003308F900340853
:100BA800FA00FB01FC017908A9077A080311031868
:100BB800013E0319E02DAA077B0803110318013E23
:100BC8000319E72DAB077C0803110318013E03192D
:100BD800EE2DAC072008F9007908F00025080A1264
:100BE8008A15AC200A128A11710883120313B40003
:100BF8007008B3003308F9003408FA00FB01FC015F
:100C08007908A9077A0803110318013E03190D2E64
:100C1800AA077B0803110318013E0319142EAB071A
:100C28007C0803110318013E03191B2EAC0708307A
:100C3800F9000310A90DAA0DAB0DAC0DF90B1D2E73
:100C48002008F9007908F00024080A128A15AC2057
:100C58000A128A11710883120313B4007008B300D2
:100C68003308F9003408FA00FB01FC017908A907E8
:100C78007A0803110318013E0319432EAA077B08BB
:100C880003110318013E03194A2EAB077C08031110
:100C98000318013E0319512EAC072108F900790801
:100CA800F00026080A128A15AC200A128A11710867
:100CB80083120313B4007008B3003308F900340832
:100CC800FA00FB01FC017908AF077A080311031841
:100CD800013E0319702EB0077B0803110318013E6B
:100CE8000319772EB1077C0803110318013E031975
:100CF8007E2EB2072208F9007908F00025080A12AA
:100D08008A15AC200A128A11710883120313B400E1
:100D18007008B3003308F9003408FA00FB01FC013D
:100D28007908AF077A0803110318013E03199D2EAD
:100D3800B0077B0803110318013E0319A42EB1075D
:100D48007C0803110318013E0319AB2EB2072208D1
:100D5800F9007908F00026080A128A15AC200A1250
:100D68008A11710883120313B4007008B3003308A2
:100D7800F9003408FA00FB01FC0108300310F90DF2
:100D8800FA0DFB0DFC0DFF3E031DC22E7908AF07BF
:100D98007A0803110318013E0319D32EB0077B0804
:100DA80003110318013E0319DA2EB1077C08031159
:100DB8000318013E0319E12EB2072908F9002A0891
:100DC800FA002B08FB002C08FC0018300310FC0C60
:100DD800FB0CFA0CF90CFF3E031DEA2E7908AF074D
:100DE8007A0803110318013E0319FB2EB0077B088C
:100DF80003110318013E0319022FB1077C080311E0
:100E08000318013E0319092FB2070830F90003102F
:100E1800A90DAA0DAB0DAC0DF90B0B2F2E082D0744
:100E2800F900FA01FA0D7908823EB3007A0803182E
:100E3800013EFF3EB4003D2F0130F9000310AF0D15
:100E4800B00DB10DB20DF90B222FAC1F2C2F2D2F89
:100E58002E2F2F140130F9000310A90DAA0DAB0D88
:100E6800AC0DF90B302FFF30B3070318B40AFF306D
:100E7800B407B11F402F412F202FAD01AC1F452FC4
:100E8800462F622FFF302905F900FF302A05FA00A6
:100E9800FF302B05FB007F302C05FC007C087B0411
:100EA8007A0479040319592F5A2F5D2FAD01AD0A21
:100EB800622F2F1C602F612F622F5A2F2D080319C4
:100EC800662F672F982F0130AF07003003180130C5
:100ED800B007003003180130B107003003180130A3
:100EE800B207321C782F792F982F2F08F900300875
:100EF800FA003108FB003208FC000130FD007C0DCF
:100F0800FC0CFB0CFA0CF90CFD0B832F7C08B200CF
:100F18007B08B1007A08B0007908AF000130B30748
:100F28000318B40A0030B4073408803AFF00803050
:100F38007F02031DA12FFF303302031CA42FA52F0E
:100F4800B02F7F3083120313B2008030B10000301D
:100F5800B0000030AF00E52F831203133408803A45
:100F6800FF0080307F02031DBB2F013033020318BE
:100F7800BE2FBF2FCB2F003083120313B2000030D7
:100F8800B1000030B0000030AF00A801E52F831297
:100F980003133308F9007908AE00FF30AF05FF30BE
:100FA800B0057F30B1050030B2052E1CDC2FDD2FD7
:100FB800DE2FB1172E08F9000310790CFA007A0811
:100FC800B2002808F9007908B2043208A3003108F1
:100FD800A2003008A1002F08A00008008312031304
:100FE800CC01CD01CE01CF01D001D101D201D30175
:100FF80083010A128A15982EFF1B0A2883137F186B
:1010080083170008840A0319FF0A080008308A00B9
:101018000408840A8207003456342034203400340B
:101028005634203400345334313400345334323499
:101038000034533433340034F0007008831203133F
:1010480088000800FF308316031385008801870194
:10105800860183120313850187018801860183169F
:10106800031788018901081488140800F200831204
:101078000313071472080A128A1520200A128A1507
:101088008312031387140330F100F10B49288312EC
:10109800031387100800F300F201731C5428552825
:1010A80059287008F1007108F2070310F00D0310B9
:1010B800F30C7308031D6128622851287208080080
:1010C800F5007503031D69286A28762873087F3E92
:1010D800F4007408F60076080A128A1104200A122D
:1010E8008A15872802307506031D7B287C288728E7
:1010F8007308BF3EF4007408F60076080A128A11D5
:1011080004200A128A150800803083120313AB06E4
:101118002F08F3002E08F2002D08F1002C08F0002B
:101128002B08F7002A08F6002908F5002808F4001B
:101138000A128A11F9210A128A15730883120313F5
:10114800AB007208AA007108A9007008A80008007E
:10115800F800F401F5017008F200F3017208F600D6
:101168007308F700781CB928BA28C0287608F4074D
:101178000318F50A7708F50701300310F60DF70D87
:10118800FF3E031DC1280310F80C7808031DCD2865
:10119800CE28B6287508F1007408F0000800F5019B
:1011A800F601EE2875087307840076080318760A96
:1011B8007407FF000A128A1500200A128A150A12FB
:1011C8008A153A200A128A150130F5070318F60A1B
:1011D8000030F60775087307840076080318760A46
:1011E800740783120313FF000A128A1500200A12DB
:1011F8008A15003A031D01290229D6280800003063
:101208000A128A1520200A128A151A30F400F830BA
:10121800F300F30B0D29F40B0D29000030300A12EE
:101228008A1104200A128A150730F4007D30F30071
:10123800F30B1C29F40B1C2930300A128A110420E4
:101248000A128A150F30F4004730F300F30B2A29ED
:10125800F40B2A292F2930300A128A1104200A1285
:101268008A1538300A128A1104200A128A150C309D
:101278000A128A1104200A128A1506300A128A11E3
:1012880004200A128A150800F701F801F701F8018D
:101298006F2977087107F5007208F4000318F40A3B
:1012A800F71F5729F4037408F6007608831203130E
:1012B800FF00750884000A128A1500200A128A1590
:1012C8000A168A11C6270A128A150130F707031869
:1012D800F80A0030F8077808803AF4008030740281
:1012E800031D78297308770203187B297C2998291C
:1012F80077087107F5007208F4000318F40AF71F5D
:101308008629F4037408F600760883120313FF0095
:10131800750884000A128A1500200A128A15003AF4
:10132800031D972998294D290800F601F31F9D29C7
:101338009E29A529F209F309F20A0319F30AF6010D
:10134800F60AF11FA829A929AE29F009F109F00A1E
:101358000319F10A700871040319B329B429E329A0
:10136800F501F50AC22901300310F00DF10DFF3E19
:10137800031DB8290130F4007408F507F11FC529C9
:10138800C629B72971087302031DCC297008720297
:10139800031CCF29D029D6297008F2027108031C32
:1013A800F303F30201300310F10CF00CFF3E031DB0
:1013B800D7290130F502031DE229E329C629760859
:1013C8000319E729E829ED29F209F309F20A0319B3
:1013D800F30A7308F1007208F0000800831203137F
:1013E800A5006430F0000030F1002508F900FA018A
:1013F8007908F2007A08F3000A128A15B7220A124D
:101408008A157008FB007B0883120313A4002408C4
:10141800303EF9007908A0009C30F9007908F00006
:1014280024080A128A154F200A128A1583120313F8
:101438002507FA007A08A5000A30F0000030F1000C
:101448002508F900FA017908F2007A08F3000A126F
:101458008A15B7220A128A157008303EFB007B08ED
:1014680083120313A1000A30F0000030F1002508B0
:10147800F900FA017908F2007A08F3000A128A15CD
:1014880099210A128A157008303EFB007B088312E6
:101498000313A200A301203008000030FC00003034
:1014A800FB000030FA000030F90073087204710480
:1014B80070040319602A612AAE2AFD01FD0A712A07
:1014C8000130F8000310F00DF10DF20DF30DF80BDB
:1014D800662A0130F8007808FD07F31F742A752A78
:1014E800642A0130F8000310F90DFA0DFB0DFC0D0C
:1014F800F80B772A73087702031D8C2A7208760284
:10150800031D8C2A71087502031D8C2A7008740249
:10151800031C8F2A902A9F2A7008F4027108031C62
:10152800710FF5027208031C720FF6027308031C90
:10153800730FF702791401300310F30CF20CF10C5D
:10154800F00CFF3E031DA02A0130FD02031DAD2A49
:10155800AE2A752A7C08F3007B08F2007A08F100AD
:101568007908F0000800F601F11FBB2ABC2AC32A3B
:10157800F009F109F00A0319F10AF601F60AF31F56
:10158800C62AC72AD02AF209F309F20A0319F30A6C
:101598000130F4007408F606F701F80170087104C8
:1015A8000319D72AD82A0F2BF501F50AE62A0130A4
:1015B8000310F00DF10DFF3E031DDC2A0130F4008D
:1015C8007408F507F11FE92AEA2ADB2A013003101B
:1015D800F70DF80DFF3E031DEB2A71087302031D7A
:1015E800F72A70087202031CFA2AFB2A022B7008D9
:1015F800F2027108031CF303F3027714013003109D
:10160800F10CF00CFF3E031D032B0130F502031D06
:101618000E2B0F2BEA2A76080319132B142B192BE0
:10162800F709F809F70A0319F80A7808F1007708A2
:10163800F0000800831203132408031D242B252B14
:10164800522B2008A5002108A6002208A70023087D
:10165800A80006300310A50DA60DA70DA80DFF3E86
:10166800031D2E2B2808F3002708F2002608F10096
:101678002508F0000030F7003D30F6000930F5008D
:101688000030F4000A128A1551220A128A157008CD
:10169800FF3E83160313990018117E2B2008A5001E
:1016A8002108A6002208A7002308A8000430031078
:1016B800A50DA60DA70DA80DFF3E031D5B2B280841
:1016C800F3002708F2002608F1002508F000003092
:1016D800F7003D30F6000930F5000030F4000A123A
:1016E8008A1551220A128A157008FF3E83160313C1
:1016F80099001815181398161812831203139817BF
:101708001813181618119810831603138717071340
:1017180008000310720D730DF4007408FA007A08BB
:10172800031D972B982BA12B0030F3000030F200FB
:101738000030F1000030F000062C7008F400710849
:10174800F5007208F6007308F7001F300310F70C55
:10175800F60CF50CF40CFF3E031DAA2B7408F800D8
:101768007808F900F217FF30F005FF30F105FF3077
:10177800F2050030F3059630FA02FA1FC42BC52B88
:10178800DF2B7A08803A973E0318CB2BCC2BCD2B36
:10179800982B01300310F30CF20CF10CF00CFF3E07
:1017A800031DCE2B0130F4007408FA07031DDD2B4E
:1017B800DE2BCD2BF62B20307A02031CE42BE52BF5
:1017C800F12B982B0130F4000310F00DF10DF20D00
:1017D800F30DF40BE82B0130FA027A08031DF52B00
:1017E800F62BE62B79080319FA2BFB2B062CF009AC
:1017F800F109F209F309F00A0319F10A0319F20AC7
:101808000319F30A0800F0007008031D0C2C0D2CB6
:10181800132C831203139F121F129F111F117003A1
:10182800031D172C182C1E2C831203139F121F1232
:101838009F111F1502307006031D232C242C2A2CFF
:10184800831203139F121F129F151F110330700676
:10185800031D2F2C302C362C831203139F121F12BA
:101868009F151F1504307006031D3B2C3C2C422C81
:10187800831203139F121F169F111F110530700644
:10188800031D472C482C4E2C831203139F121F163E
:101898009F111F1506307006031D532C542C5A2C0B
:1018A800831203139F121F169F151F11073070060E
:1018B800031D5F2C602C662C831203139F121F16C6
:1018C8009F151F1508307006031D6B2C6C2C722C8D
:1018D800831203139F161F129F111F1109307006E0
:1018E800031D772C782C7E2C831203139F161F124E
:1018F8009F111F150A307006031D832C842C8A2C17
:10190800831203139F161F129F151F110B307006A9
:10191800031D8F2C902C962C831203139F161F12D5
:101928009F151F150C307006031D9B2C9C2CA22C98
:10193800831203139F161F169F111F110D30700677
:10194800031DA72CA82CAE2C831203139F161F1659
:101958009F111F15831203139F140800F8007808BD
:101968000319B72CB82CCC2CF31FBB2CBC2CCC2CBB
:101978007009FA007109FB007209FC007309FD0087
:10198800FA0A0319FB0A0319FC0A0319FD0AD42CE5
:101998007308FD007208FC007108FB007008FA006B
:1019A8007308720471047004031DDB2CDC2CE52C15
:1019B8000030F3000030F2000030F1000030F00099
:1019C8006B2D9630F4007408F900F72C0130F40000
:1019D8007408F90701300310FD0CFC0CFB0CFA0C21
:1019E800FF3E031DEF2CFE307D05031DFC2CFD2C56
:1019F800EA2C192D0130F4007408F9070130FA07B0
:101A0800003003180130FB07003003180130FC07D1
:101A1800003003180130FD0701300310FD0CFC0CE9
:101A2800FB0CFA0CFF3E031D112DFF307D05031D35
:101A38001E2D1F2DFE2C2B2D0130F9020130F40034
:101A48000310FA0DFB0DFC0DFD0DF40B242DFC1BF2
:101A58002E2D2F2D352D023079020318342D352DDA
:101A6800202D7918382D392D412DFF30FA05FF30FA
:101A7800FB057F30FC05FF30FD050310F90C7908E4
:101A8800F400F501F601F70118300310F40DF50D17
:101A9800F60DF70DFF3E031D492D7408FA0475086D
:101AA800FB047608FC047708FD04780803195D2D0B
:101AB8005E2D632DF31F612D622D632DFD177D08AB
:101AC800F3007C08F2007B08F1007A08F0000800B7
:101AD80083120313BE004230A3004C30A200003032
:101AE800A1000030A0003E08BA00BB01BC01BD0146
:101AF8003D08F3003C08F2003B08F1003A08F0000A
:101B080001300A128A15B2240A128A157308831240
:101B18000313A7007208A6007108A5007008A400A6
:101B28000A128A111C200A128A1583120313230829
:101B3800C8002208C7002108C6002008C5004808B8
:101B4800F3004708F2004608F1004508F0000A12C1
:101B58008A158D230A128A15700883120313BA0096
:101B68003A08C4004408303EBA003A08BF002E3094
:101B7800BA003A08C0004408BA00BB01BC01BD0164
:101B88003D08F3003C08F2003B08F1003A08F00079
:101B980001300A128A15B2240A128A1573088312B0
:101BA8000313AB007208AA007108A9007008A80006
:101BB8004808AF004708AE004608AD004508AC002D
:101BC8000A128A1588200A128A15831203132B0811
:101BD800C8002A08C7002908C6002808C5004130DF
:101BE800A3002030A2000030A1000030A000480867
:101BF800A7004708A6004608A5004508A4000A1241
:101C08008A1191240A128A15831203132308C80023
:101C18002208C7002108C6002008C5004808F300AC
:101C28004708F2004608F1004508F0000A128A1534
:101C38008D230A128A15700883120313BA003A0812
:101C4800C4004408303EBA003A08C1004408BA004B
:101C5800BB01BC01BD013D08F3003C08F2003B0894
:101C6800F1003A08F00001300A128A15B2240A126B
:101C78008A15730883120313AB007208AA0071084F
:101C8800A9007008A8004808AF004708AE00460839
:101C9800AD004508AC000A128A1588200A128A1578
:101CA800831203132B08C8002A08C7002908C60096
:101CB8002808C5004130A3002030A2000030A10050
:101CC8000030A0004808A7004708A6004608A5005D
:101CD8004508A4000A128A1191240A128A1583124F
:101CE80003132308C8002208C7002108C6002008DB
:101CF800C5004808F3004708F2004608F100450807
:101D0800F0000A128A158D230A128A1570088312A8
:101D18000313BA003A08C4004408303EBA003A082F
:101D2800C200C3013F3008000A128A1526200A1291
:101D38008A15003083120313A3000030A200253057
:101D4800A1008030A000A401A40A0A128A151E234B
:101D58000A128A150A128A1503210A128A150A1606
:101D68008A11D2270A128A15F301F30A01300A12DE
:101D78008A1564200A128A150830F3008030F400AE
:101D88000A128A15D3200A128A15083083120313FF
:101D9800C9004908F30001300A128A1564200A12A2
:101DA8008A150B30F3008030F4000A128A15D3200C
:101DB8000A128A150F3083120313C9004908F30069
:101DC80001300A128A1564200A128A150E30F300AF
:101DD8008030F4000A128A15D3200A128A150A16CE
:101DE8008A11ED270A128A1500300A128A1507246B
:101DF8000A128A15831203130C1F032F042F292F8D
:101E08005108031D082F092F1A2F1E08C900490859
:101E1800D30001300A128A1507240A128A150130E4
:101E280083120313C9004908D107272F1E08C900C8
:101E38004908D20000300A128A1507240A128A15A6
:101E480083120313D1010C139F1453080A128A1525
:101E58006C250A128A1583120313C9004908D00099
:101E6800F301F30A02300A128A1564200A128A154D
:101E7800831203135008F3000030F4000A128A1585
:101E8800D3200A128A15831203135008F100003078
:101E9800F2000630C9004908F3000A128A154821E1
:101EA8000A128A150530F1008030F20006308312DC
:101EB8000313C9004908F3000A128A1548210A12B7
:101EC8008A158312031352080A128A156C250A12FE
:101ED8008A1583120313C9004908CF000830C900C6
:101EE8004908F30002300A128A1564200A128A157A
:101EF800831203134F08F3000030F4000A128A1506
:101F0800D3200A128A15831203134F08F1000030F8
:101F1800F2000830C9004908F3000A128A1548215E
:101F28000A128A150130F1008030F200063083125F
:101F38000313C9004908F3000A128A1548210A1236
:101F48008A150A168A11BF270A128A15003A031938
:101F5800AE2FAF2FD72FFF308312031386000A1638
:101F68008A11DF270A128A1583120313C900490848
:101F7800CB002B304B06031DC22FC32FC82F0130B7
:101F8800C9004908CD07D72F2D304B06031DCD2F8B
:101F9800CE2FD72F4D08031DD22FD32FD52FCD01EC
:101FA800D72F0130CD020E3083120313C900490820
:101FB800F30002300A128A1564200A128A15831265
:101FC80003134D080A128A15F2210A128A15831280
:101FD8000313C9004908CC004C08C900CA014908C4
:101FE800F3004A08F4000A128A15D3200A128A1547
:081FF800FE2E0A128A110028D6
:102F7E00831203130C0EF000700C01390800F000E0
:102F8E0083160313981CCC2FCD2FC72F70088312D6
:102F9E0003139900080000300A128A1104200A1641
:102FAE008A1101300A128A1104200A168A110800A9
:102FBE000A168A11BF270A168A11003A0319E82F3A
:102FCE00E92FDF2F831203131A080800831203134D
:102FDE001F179F13831603131F129F129F13831223
:102FEE0003130C13831603130C17831203131F14EE
:022FFE000800C9
:04400E00D420FF3F7C
:00000001FF
