:020000040000FA
:060000000A128A110C280F
:10000800FE00030EF0000A08F1000A168A11772C88
:100018000A128A110F28FA01FB018313A030840009
:10002800BF300A168A117E240A128A1183010A1225
:100038008A159A2B83160313C9004208F500410854
:10004800F4004008F3003F08F2000A168A11E0267F
:100058000A128A11730883160313C6007208C500B2
:10006800D001D101CE01CF010130D2000030D30040
:100078004208F5004108F4004008F3003F08F20088
:100088000030F9000030F8000030F7000030F600CA
:100098000A168A115C270A128A110318542855284F
:1000A800C328BF3083120313D4008030D30000303C
:1000B800D2000030D10083160313420883120313C1
:1000C800D80083160313410883120313D70083163D
:1000D8000313400883120313D600831603133F0843
:1000E80083120313D5000A128A1180240A128A1176
:1000F80083120313540883160313C20083120313D5
:10010800530883160313C10083120313520883167E
:100118000313C00083120313510883160313BF008F
:100128002D3083120313EB00831603134908840050
:10013800831203136B0883138000013083160313A3
:10014800CE070318CF0A0030CF07C3280A30F200C1
:100158000030F3004608F5004508F4000A168A1135
:1001680008260A128A11730883160313C600720838
:10017800C5000130D0070318D10A0030D107831613
:10018800031345084604031DCA28CB28AA28132AA6
:1001980050035104031DD128D228D7280130D2009A
:1001A8000030D30019290230C7000030C8000329E5
:1001B80083160313530883120313A600831603132D
:1001C800520883120313A5000A30A7000030A800C4
:1001D8000A168A110B250A128A118312031326089C
:1001E80083160313D30083120313250883160313FE
:1001F800D2000130C7070318C80A0030C8075108E1
:10020800803A83120313EB00831603134808803ADD
:10021800831203136B02031D152983160313470862
:100228005002031818291929DC28831603135208C9
:1002380083120313A90083160313530883120313AD
:10024800AA000030AA1BFF30AB00AC0001300A1234
:100258008A1501210A128A11831203132C08BA0085
:100268002B08B9002A08B8002908B7008316031319
:10027800420883120313BE00831603134108831236
:100288000313BD0083160313400883120313BC0035
:10029800831603133F0883120313BB000A128A153F
:1002A800BD210A128A11831203133A088316031315
:1002B800CD0083120313390883160313CC0083126D
:1002C8000313380883160313CB008312031337086C
:1002D80083160313CA00530883120313A800831656
:1002E8000313520883120313A700831603134D0840
:1002F800F5004C08F4004B08F3004A08F2000A160F
:100308008A11E0260A128A11730883120313A600C1
:100318007208A5000A168A110B250A128A1183127F
:1003280003132508A9002608AA000030AA1BFF30DD
:10033800AB00AC0001300A128A1501210A128A1199
:10034800831203132C08BA002B08B9002A08B80036
:100358002908B70083160313420883120313BE004B
:1003680083160313410883120313BD008316031376
:10037800400883120313BC00831603133F0883123B
:100388000313BB000A168A11E7240A128A11831282
:1003980003133A0883160313C200831203133908A0
:1003A80083160313C100831203133808831603133B
:1003B800C00083120313370883160313BF004D08C8
:1003C800F5004C08F4004B08F3004A08F2000A163E
:1003D8008A11E0260A128A117208303E831203132A
:1003E800EB00831603134E08490783120313EC002E
:1003F8006C0884006B088313800001308316031394
:10040800CE070318CF0A0030CF07FF30D0070318F4
:10041800D10AFF30D1070130D2000030D300500894
:100428005104031D182A192ACC282E3083120313CD
:10043800EB00831603134E08490783120313EC00DD
:100448006C0884006B088313800001308316031343
:10045800CE070318CF0A0030CF070130C70000309D
:10046800C8005D2A83160313530883120313A600DA
:1004780083160313520883120313A5000A30A7003A
:100488000030A8000A168A110B250A128A11831255
:100498000313260883160313D300831203132508B6
:1004A80083160313D2000130C7070318C80A0030A7
:1004B800C8074408803A83120313EB00831603131A
:1004C8004808803A831203136B02031D6F2A8316B0
:1004D8000313470843020318722A732A362A83161D
:1004E8000313520883120313A90083160313530836
:1004F80083120313AA000030AA1BFF30AB00AC0024
:1005080001300A128A1501210A128A118312031373
:100518002C08D4002B08D3002A08D2002908D100BF
:10052800831603134208F5004108F4004008F3005D
:100538003F08F2000A168A11E0260A128A11720888
:1005480083120313A9007308AA000030AA1BFF3006
:10055800AB00AC0001300A128A1501210A128A1177
:10056800831203132C08BA002B08B9002A08B80014
:100578002908B70083160313420883120313BE0029
:1005880083160313410883120313BD008316031354
:10059800400883120313BC00831603133F08831219
:1005A8000313BB000A168A11E7240A128A11831260
:1005B80003133A08D8003908D7003808D600370896
:1005C800D5000A128A1180240A128A118312031391
:1005D800540883160313CD0083120313530883169C
:1005E8000313CC0083120313520883160313CB00A2
:1005F80083120313510883160313CA004D08C2005F
:100608004C08C1004B08C0004A08BF004208F5006A
:100618004108F4004008F3003F08F2000A168A1166
:10062800E0260A128A11013083160313D200003023
:10063800D3004408D1004308D000692C500351046A
:10064800031D272B282B2D2B0130D2000030D3007F
:100658006F2B0230C7000030C800592B83160313D4
:10066800530883120313A600831603135208831238
:100678000313A5000A30A7000030A8000A168A1143
:100688000B250A128A1183120313260883160313F3
:10069800D30083120313250883160313D2000130F5
:1006A800C7070318C80A0030C8075108803A8312E0
:1006B8000313EB00831603134808803A83120313CD
:1006C8006B02031D6B2B8316031347085002031894
:1006D8006E2B6F2B322B83160313520883120313CE
:1006E800A90083160313530883120313AA000030CA
:1006F800AA1BFF30AB00AC0001300A128A15012199
:100708000A128A11831203132C08BA002B08B900A5
:100718002A08B8002908B700831603134208831271
:100728000313BE0083160313410883120313BD008D
:1007380083160313400883120313BC0083160313A4
:100748003F0883120313BB000A128A15BD210A123F
:100758008A11831203133A0883160313CD008312F8
:100768000313390883160313CC00831203133808C4
:1007780083160313CB00831203133708831603135E
:10078800CA00530883120313A800831603135208E0
:1007980083120313A700831603134D08F5004C08B2
:1007A800F4004B08F3004A08F2000A168A11E02602
:1007B8000A128A11730883120313A6007208A5008F
:1007C8000A168A110B250A128A11831203132508A7
:1007D800A9002608AA000030AA1BFF30AB00AC0015
:1007E80001300A128A1501210A128A118312031391
:1007F8002C08BA002B08B9002A08B8002908B70045
:1008080083160313420883120313BE0083160313CF
:10081800410883120313BD00831603134008831293
:100828000313BC00831603133F0883120313BB0092
:100838000A168A11E7240A128A11831203133A0846
:1008480083160313C2008312031339088316031394
:10085800C10083120313380883160313C0008312E0
:100868000313370883160313BF004D08F5004C081F
:10087800F4004B08F3004A08F2000A168A11E02631
:100888000A128A117208303E83120313EB00831692
:1008980003134E08490783120313EC006C08840005
:1008A8006B0883138000013083160313CE070318E7
:1008B800CF0A0030CF07FF30D0070318D10AFF3026
:1008C800D1070130D2000030D30050085104031D75
:1008D8006E2C6F2C222B0A3083120313EB00831625
:1008E80003134E08490783120313EC006C088400B5
:1008F8006B0883138000080083120313540880399F
:10090800D9005908DE005408D9005907DA005A08F6
:10091800E400D31F902C912C922C641464080319C2
:10092800962C972CA62C640A031D9B2C9C2CA42C7B
:100938000030D4000030D3000030D2000030D100A5
:10094800D317AE2C0030D4000030D3000030D200D2
:100958000030D10058088039D9005908DE065808F7
:10096800D9005907DA005A08DF00D71FBC2CBD2C64
:10097800BE2C5F145F080319C22CC32CD22C5F0A4B
:10098800031DC72CC82CD02C0030D8000030D7004D
:100998000030D6000030D500D717DA2C0030D80048
:1009A8000030D7000030D6000030D5005F080319AA
:1009B800DE2CDF2CE42C6408031DE32CE42CED2C46
:1009C8000030D4000030D3000030D2000030D10015
:1009D800E02F5108D9005908F20057080A168A1161
:1009E80032250A128A11730883120313EA00720867
:1009F800E9006908D900DA01DB01DC015C08E300E1
:100A08005B08E2005A08E1005908E0006A08D900CA
:100A1800DA01DB01DC015C08E8005B08E7005A0842
:100A2800E6005908E5005208D9005908F2005608AE
:100A38000A168A1132250A128A11730883120313BF
:100A4800EA007208E9006908D900DA01DB01DC0173
:100A58005908E0075A0803110318013E0319352DF8
:100A6800E1075B0803110318013E03193C2DE20757
:100A78005C0803110318013E0319432DE3076A08B4
:100A8800D900DA01DB01DC015908E5075A0803112E
:100A98000318013E0319512DE6075B0803110318DB
:100AA800013E0319582DE7075C0803110318013E9E
:100AB80003195F2DE8075308D9005908F2005508B3
:100AC8000A168A1132250A128A117308831203132F
:100AD800EA007208E9006908D900DA01DB01DC01E3
:100AE8005908E0075A0803110318013E03197D2D20
:100AF800E1075B0803110318013E0319842DE2077F
:100B08005C0803110318013E03198B2DE3076A08DB
:100B1800D900DA01DB01DC015908E5075A0803119D
:100B28000318013E0319992DE6075B080311031802
:100B3800013E0319A02DE7075C0803110318013EC5
:100B48000319A72DE8070830D9000310E00DE10DBF
:100B5800E20DE30DD90BA92D5208D9005908F2006E
:100B680055080A168A1132250A128A117308831247
:100B78000313EA007208E9006908D9006A08DA0074
:100B8800DB01DC015908E0075A0803110318013E8C
:100B98000319CF2DE1075B0803110318013E031960
:100BA800D62DE2075C0803110318013E0319DD2D59
:100BB800E3075108D9005908F20056080A168A11A5
:100BC80032250A128A11730883120313EA00720885
:100BD800E9006908D9006A08DA00DB01DC01590874
:100BE800E0075A0803110318013E0319FC2DE10719
:100BF8005B0803110318013E0319032EE2075C0882
:100C080003110318013E03190A2EE3070830D9001F
:100C18000310E00DE10DE20DE30DD90B0C2E510888
:100C2800D9005908F20055080A168A1132250A1205
:100C38008A11730883120313EA007208E90069082D
:100C4800D9006A08DA00DB01DC015908E0075A0814
:100C580003110318013E0319322EE1075B08031143
:100C68000318013E0319392EE2075C080311031823
:100C7800013E0319402EE3075208D9005908F20033
:100C880057080A168A1132250A128A117308831224
:100C98000313EA007208E9006908D9006A08DA0053
:100CA800DB01DC015908E5075A0803110318013E66
:100CB80003195F2EE6075B0803110318013E0319A9
:100CC800662EE7075C0803110318013E03196D2E11
:100CD800E8075308D9005908F20056080A168A117D
:100CE80032250A128A11730883120313EA00720864
:100CF800E9006908D9006A08DA00DB01DC01590853
:100D0800E5075A0803110318013E03198C2EE6075C
:100D18005B0803110318013E0319932EE7075C08CB
:100D280003110318013E03199A2EE8075308D90046
:100D38005908F20057080A168A1132250A128A1130
:100D4800730883120313EA007208E9006908D900DE
:100D58006A08DA00DB01DC0108300310D90DDA0D6E
:100D6800DB0DDC0DFF3E031DB12E5908E5075A08BF
:100D780003110318013E0319C22EE6075B0803118D
:100D88000318013E0319C92EE7075C08031103186D
:100D9800013E0319D02EE8076008D9006108DA007F
:100DA8006208DB006308DC0018300310DC0CDB0C85
:100DB800DA0CD90CFF3E031DD92E5908E5075A084D
:100DC80003110318013E0319EA2EE6075B08031115
:100DD8000318013E0319F12EE7075C0803110318F5
:100DE800013E0319F82EE8070830D9000310E00D7A
:100DF800E10DE20DE30DD90BFA2E64085F07D90067
:100E0800DA01DA0D5908823EE9005A080318013E52
:100E1800FF3EEA002C2F0130D9000310E50DE60D46
:100E2800E70DE80DD90B112FE31F1B2F1C2F1D2FCA
:100E380065140130D9000310E00DE10DE20DE30D5A
:100E4800D90B1F2FFF30E9070318EA0AFF30EA071A
:100E5800E71F2F2F302F0F2FDF01E31F342F352FE0
:100E6800512FFF306005D900FF306105DA00FF30EF
:100E78006205DB007F306305DC005C085B045A0414
:100E880059040319482F492F4C2FDF01DF0A512F2E
:100E9800651C4F2F502F512F492F5F080319552FCD
:100EA800562F872F0130E507003003180130E60779
:100EB800003003180130E707003003180130E80755
:100EC800681C672F682F872F6508D9006608DA0025
:100ED8006708DB006808DC000130DD005C0DDC0C15
:100EE800DB0CDA0CD90CDD0B722F5C08E8005B0810
:100EF800E7005A08E6005908E5000130E907031839
:100F0800EA0A0030EA076A08803AFF0080307F0268
:100F1800031D902FFF306902031C932F942F9F2FDE
:100F28007F3083120313E8008030E7000030E600CA
:100F38000030E500D42F831203136A08803AFF00BB
:100F480080307F02031DAA2F013069020318AD2FDC
:100F5800AE2FBA2F003083120313E8000030E700E9
:100F68000030E6000030E500DE01D42F83120313C1
:100F78006908D9005908E400FF30E505FF30E605A7
:100F88007F30E7050030E805641CCB2FCC2FCD2F30
:100F9800E7176408D9000310590CDA005A08E8006A
:100FA8005E08D9005908E8046808D4006708D30027
:100FB8006608D2006508D1000800F5008312031303
:100FC800071075080A168A1171240A128A118312E9
:100FD800031387140330F4009730F300F30BF22F58
:0E0FE800F40BF22FF72F83120313871008006B
:1010060000300A128A11E1270A128A1501300A12E3
:101016008A11E1270A128A15080083120313A00118
:10102600A101392820087507F8007608F70003188B
:10103600F70AA01F1F28F7037708F900790883121B
:101046000313FF00780884000A168A1100200A128A
:101056008A150A168A11AD240A128A1501308312DE
:101066000313A0070318A10A0030A107200875077B
:10107600F8007608F7000318F70AA01F4328F703BD
:101086007708F900790883120313FF0078088400B3
:101096000A168A1100200A128A15003A031D5428DE
:1010A600552815280800F2007208031D5B285C28E5
:1010B6006228831203139F121F129F111F117203BE
:1010C600031D662867286D28831203139F121F12BB
:1010D6009F111F1502307206031D72287328792886
:1010E600831203139F121F129F151F1103307206DE
:1010F600031D7E287F288528831203139F121F1243
:101106009F151F1504307206031D8A288B28912807
:10111600831203139F121F169F111F1105307206AB
:10112600031D962897289D28831203139F121F16C6
:101136009F111F1506307206031DA228A328A92891
:10114600831203139F121F169F151F110730720675
:10115600031DAE28AF28B528831203139F121F164E
:101166009F151F1508307206031DBA28BB28C12813
:10117600831203139F161F129F111F110930720647
:10118600031DC628C728CD28831203139F161F12D6
:101196009F111F150A307206031DD228D328D9289D
:1011A600831203139F161F129F151F110B30720611
:1011B600031DDE28DF28E528831203139F161F125E
:1011C6009F151F150C307206031DEA28EB28F1281F
:1011D600831203139F161F169F111F110D307206DF
:1011E600031DF628F728FD28831203139F161F16E2
:1011F6009F111F15831203139F14080083120313F4
:10120600B10031080319082909291D29AC1F0C2929
:101216000D291D292909B3002A09B4002B09B50097
:101226002C09B600B30A0319B40A0319B50A03193F
:10123600B60A25292C08B6002B08B5002A08B400E2
:101246002908B3002C082B042A042904031D2C2981
:101256002D2936290030AC000030AB000030AA0042
:101266000030A900BC299630AD002D08B2004829EF
:101276000130AD002D08B20701300310B60CB50CD5
:10128600B40CB30CFF3E031D4029FE303605031D8A
:101296004D294E293B296A290130AD002D08B20798
:1012A6000130B307003003180130B40700300318CB
:1012B6000130B507003003180130B60701300310BE
:1012C600B60CB50CB40CB30CFF3E031D6229FF30FF
:1012D6003605031D6F2970294F297C290130B2027A
:1012E6000130AD000310B30DB40DB50DB60DAD0B49
:1012F6007529B51B7F2980298629023032020318F9
:10130600852986297129321889298A299229FF3047
:10131600B305FF30B4057F30B505FF30B6050310C1
:10132600B20C3208AD00AE01AF01B00118300310A7
:10133600AD0DAE0DAF0DB00DFF3E031D9A292D0864
:10134600B3042E08B4042F08B5043008B6043108D7
:101356000319AE29AF29B429AC1FB229B329B42980
:10136600B6173608AC003508AB003408AA003308B7
:10137600A9000800831203133E088039BF003F0806
:10138600C8003E08BF003F07C0004008CF00BD1F91
:10139600CD29CE29CF294F144F080319D329D42993
:1013A600E4294F0A031DD829D929E1290030BE00B6
:1013B6000030BD000030BC000030BB00BD17BE01D0
:1013C600EC290030BE000030BD000030BC0000300B
:1013D600BB003A088039BF003F08C8063A08BF007C
:1013E6003F07C0004008D000B91FFA29FB29FC2995
:1013F600501450080319002A012A112A500A031D05
:10140600052A062A0E2A0030BA000030B90000303C
:10141600B8000030B700B917BA01192A0030BA006F
:101426000030B9000030B8000030B7003A0839047F
:1014360038043704031D202A212A3A2A0030BE0028
:101446000030BD000030BC000030BB008030BD0461
:101456007F30BE044808BF003F08BE043E08BA00FD
:101466003D08B9003C08B8003B08B700992B4F0867
:10147600031D3E2A3F2A482A0030BA000030B90030
:101486000030B8000030B700992B4F08BF00C001EC
:101496004008C20050083F02C100031CC2034108B5
:1014A6007F3EC90042080318013E003ECA003E08BE
:1014B600C7003D08C6003C08C5003B08C400003014
:1014C600BE000030BD000030BC000030BB00003064
:1014D600CE000030CD000030CC000030CB00D00173
:1014E600BE2A50080319782A792A992A0130BF00A2
:1014F6000310C40DC50DC60DC70DBF0B7B2A0130E9
:10150600BF000310BB0DBC0DBD0DBE0DBF0B842A65
:10151600CE1F8E2A8F2A902A3B140130BF0003105B
:10152600CB0DCC0DCD0DCE0DBF0B922A3A0847023E
:10153600031DA72A39084602031DA72A38084502B3
:10154600031DA72A37084402031CAA2AAB2ABA2A73
:101556004E173708C4023808031C380FC50239086D
:10156600031C390FC6023A08031C3A0FC7020130A2
:10157600BF003F08D0071A305002031CC32AC42AF2
:10158600742A47084604450444040319CB2ACC2A86
:10159600EB2A4B14EB2A0130BF000310BB0DBC0D28
:1015A600BD0DBE0DBF0BD02ACE1FDA2ADB2ADC2AE0
:1015B6003B140130BF000310CB0DCC0DCD0DCE0D6D
:1015C600BF0BDE2AFF30C9070318CA0AFF30CA0755
:1015D600BD1FEE2AEF2ACE2AD001CE1FF32AF42A07
:1015E600102BFF304B05BF00FF304C05C000FF300D
:1015F6004D05C1007F304E05C2004208410440043B
:101606003F040319072B082B0B2BD001D00A102BF4
:101616003B1C0E2B0F2B102B082B50080319142BD9
:10162600152B462B0130BB07003003180130BC07D1
:10163600003003180130BD07003003180130BE0723
:101646003E1C262B272B462B3B08BF003C08C00020
:101656003D08C1003E08C2000130C300420DC20C65
:10166600C10CC00CBF0CC30B312B4208BE00410895
:10167600BD004008BC003F08BB000130C907031885
:10168600CA0A0030CA074A08803AFF0080307F0243
:10169600031D4F2BFF304902031C522B532B612B8A
:1016A600FF3083120313C9000030CA000030BE00A9
:1016B6000030BD000030BC000030BB0083120313B5
:1016C6004A08803AFF0080307F02031D6C2B0130F0
:1016D600490203186F2B702B7D2B83120313C9014C
:1016E600CA010030BE000030BD000030BC00003032
:1016F600BB00C801831203134908BF003F08CF008F
:101706004F1C862B872B892BBD178D2B7F30BF0057
:101716003F08BD054F08BF0003103F0CC00040083E
:10172600BE004808BF003F08BE04312A08000A165A
:101736008A1199240A128A15003083120313A9000C
:101746000030A8002530A7008030A600AA010A169E
:101756008A1171260A128A150A168A115B250A123F
:101766008A150A128A1503200A128A15F601F60A44
:1017760001300A168A11C3240A128A150130F500AF
:101786008030F6000A128A1510200A128A150830CF
:1017960083160313D4005408F60001300A168A1182
:1017A600C3240A128A150430F5008030F6000A12A6
:1017B6008A1510200A128A150F3083160313D400D7
:1017C6005408F60001300A168A11C3240A128A1533
:1017D6000730F5008030F6000A128A1510200A122A
:1017E6008A150A168A1186240A128A1500300A12E8
:1017F6008A1556200A128A15831203130C1F042C0D
:10180600052C382C831603132808031D0B2C0C2CCF
:10181600212C831203131E0883160313D4005408C5
:10182600AA0001300A128A1556200A128A150130BA
:1018360083160313D4005408A807322C831203130B
:101846001E0883160313D4005408A90000300A1298
:101856008A1556200A128A1583160313A8012A0828
:101866008312031386000C139F1400308316031390
:10187600A7000030A6000030A5000030A40000300C
:10188600A3000030A2000030A1000030A0004030CC
:1018960083120313D400A030D3000030D2000030EE
:1018A600D1004330BA007F30B9000030B8000030B4
:1018B600B700831603132A08D400D501D601D70131
:1018C600570883120313AC008316031356088312BA
:1018D6000313AB0083160313550883120313AA00E0
:1018E60083160313540883120313A90001300A1246
:1018F6008A1501210A128A15831203132C08BE00C9
:101906002B08BD002A08BC002908BB000A128A154C
:10191600BD210A128A15831203133A08D800390822
:10192600D7003808D6003708D5000A128A11802455
:101936000A128A1583120313540883160313A70089
:1019460083120313530883160313A600831203138B
:10195600520883160313A500831203135108831636
:101966000313A4002708C2002608C1002508C000EA
:101976002408BF000230C3000030C400B5300A128C
:101986008A111E200A128A15403083120313D400CE
:10199600A030D3000030D2000030D1004330BA006E
:1019A6007F30B9000030B8000030B700831603134B
:1019B6002908D400D501D601D7015708831203138D
:1019C600AC0083160313560883120313AB00831669
:1019D6000313550883120313AA008316031354082E
:1019E60083120313A90001300A128A1501210A1273
:1019F6008A15831203132C08BE002B08BD002A0883
:101A0600BC002908BB000A128A15BD210A128A15D4
:101A1600831203133A08D8003908D7003808D600CD
:101A26003708D5000A128A1180240A128A158312F1
:101A36000313540883160313A300831203135308D6
:101A460083160313A200831203135208831603138B
:101A5600A10083120313510883160313A000230861
:101A6600C2002208C1002108C0002008BF000230C1
:101A7600C3000030C400AB300A128A111E200A12BD
:101A86008A15F601F60A02300A168A11C3240A12CA
:101A96008A15B530F5000030F6000A128A151020B6
:101AA6000A128A15083083160313D4005408F60068
:101AB60002300A168A11C3240A128A15AB30F500C1
:101AC6000030F6000A128A1510200A128A153430E0
:101AD60083160313D500F130D400D40B702DD50B2B
:101AE600702DFF2B0A128A110C2875088039831273
:101AF6000313A0002008A8007508A0002007A10075
:101B06002108AA00F41F882D892D8A2D2A142A0857
:101B160003198E2D8F2D9F2D2A0A031D932D942D8B
:101B26009C2D0030F5000030F4000030F30000304A
:101B3600F200F417F501A72D0030F5000030F4008F
:101B46000030F3000030F20079088039A000200848
:101B5600A900290828060319B12DB22DB32D28177F
:101B66007908A0002007A1002108A900F81FBC2DB4
:101B7600BD2DBE2D291429080319C22DC32DD32D21
:101B8600290A031DC72DC82DD02D0030F9000030BD
:101B9600F8000030F7000030F600F817F901DB2DE9
:101BA6000030F9000030F8000030F7000030F60091
:101BB6002A0829020318E02DE12D252E281FE42DE1
:101BC600E52DE92D8030A0002008A8062A08A000EF
:101BD6002008AB002908A0002008AA002B08A000B6
:101BE6002008A9007208A0002008AB007608A00013
:101BF6002008F2002B08A0002008F6007308A000B9
:101C06002008AB007708A0002008F3002B08A000EE
:101C16002008F7007408A0002008AB007808A00090
:101C26002008F4002B08A0002008F8007508A00082
:101C36002008AB007908A0002008F5002B08A000BA
:101C46002008F900AB012908A000A1012108A30082
:101C56002A082002A200031CA3032308803AFF00DF
:101C660080307F02031D392E1A302202031C3C2EBF
:101C76003D2E7A2E7508740473047204031D442ED7
:101C8600462E0130472E003083120313A000200891
:101C9600AB000030F5000030F4000030F3000030F7
:101CA600F2002908A0002008AA00822E2B1C5C2E18
:101CB6005D2E662E2B08A0000310200C0138A10013
:101CC6002108AB00682E0310AB0C721C6B2E6C2E19
:101CD6006D2EAB170130A000750DF50CF40CF30C4E
:101CE600F20CA00B6F2E0130A0002008AA07831269
:101CF600031329082A02031C812E822E592E281B23
:101D0600852E862ED12E2A08031D8A2E8B2E942EE2
:101D16000030F5000030F4000030F3000030F2002F
:101D2600FF2F7608F207770803110318013E0319FF
:101D36009D2EF307780803110318013E0319A42EFC
:101D4600F407790803110318013E0319AB2EF507B2
:101D5600751CAE2EAF2E852F2B1CB22EB32EBC2E8D
:101D66002B08A0000310200C0138A1002108AB00AD
:101D7600BE2E0310AB0C721CC12EC22EC32EAB1787
:101D86000130A000750DF50CF40CF30CF20CA00B51
:101D9600C52E0130A0002008AA07852F7508803AB5
:101DA600FF007908803A7F02031DE32E780874024B
:101DB600031DE32E77087302031DE32E76087202D5
:101DC6000318E62EE72E3F2FFF30A000FF30A100BC
:101DD600FF30A200FF30A3007608A4007708A50014
:101DE6007808A6007908A7007208A4027308031CE5
:101DF600730FFE2EFF2EA5027408031C740F042F0A
:101E0600052FA6027508031C750F0A2F0B2FA702B4
:101E16002408A00725080318250F122F132FA10742
:101E260026080318260F182F192FA20727080318AC
:101E3600270AA3072308F5002208F4002108F30067
:101E46002008F2008030A0002008A806AB09AB0AE3
:101E56002B08031D2F2F302F4D2F0130F207003096
:101E660003180130F307003003180130F40700307F
:101E760003180130F5074D2F7608F2027708031C88
:101E8600770FF3027808031C780FF4027908031C15
:101E9600790FF5027508740473047204031D542F38
:101EA600552F812F2B08031D592F5A2F812F0030B4
:101EB600F5000030F4000030F3000030F200FF2F90
:101EC6000130A0000310F20DF30DF40DF50DA00B7B
:101ED600652FAB1F6F2F702F712F72142B1C742F51
:101EE600752F782F0314AB0D7A2F0310AB0D2A082C
:101EF60003197E2F7F2F812F0130AA02F41F842F12
:101F0600852F632FA901AB1F892F8A2F982F2B08A6
:101F16007F3903198F2F902F932FA901A90A982F84
:101F2600721C962F972F982F902F290803199C2FF4
:101F36009D2FD12F0130F207003003180130F3072F
:101F4600003003180130F407003003180130F5079C
:101F5600751CAE2FAF2FD12F7208A0007308A100F9
:101F66007408A2007508A3000130A400230DA30C79
:101F7600A20CA10CA00CA40BB92F2308F500220873
:101F8600F4002108F3002008F2002A0A0319CC2FD6
:101F9600CD2FD12F0130A0002008AA072A0A031945
:101FA600D52FD62FDB2F2A08031DDA2FDB2FE92F9B
:101FB6000030F5000030F4000030F3000030F2008D
:101FC6002A08031DE72FE82FE92FA8012A1CEC2F6A
:101FD600ED2FEF2FF417F32F7F30A0002008F40524
:101FE6002A08A0000310200CA1002108F500A81F54
:101FF600FD2FFE2FFF2FF5170800FF1B0A2883135E
:102006007F1883170008840A0319FF0A0800103096
:102016008A000408840A82070034533431340034B9
:0C2026005334323400345334333400346B
:1028E200F2007208831203138800080071088A003C
:1028F200700E8300FE0E7E0E090064008001840AC1
:1029020004060319003404067F2C831203131F17D5
:102912009F13831603131F129F129F138312031315
:102922000C13831603130C17831203131F140800CE
:10293200FF30831603138500880187018601831205
:102942000313850187018801860183160317880115
:102952008901081488140800F40083120313071471
:1029620074080A168A1171240A168A118312031333
:1029720087140630F300F30BBC2C00008312031300
:1029820087100800F8007803031DC82CC92CD52C29
:1029920076087F3EF7007708F90079080A128A1153
:1029A200E1270A168A11E62C02307806031DDA2C7A
:1029B200DB2CE62C7608BF3EF7007708F900790891
:1029C2000A128A11E1270A168A110800803083123E
:1029D2000313BA063E08F5003D08F4003C08F30074
:1029E2003B08F2003A08F9003908F8003808F70005
:1029F2003708F6000A128A1578250A168A11750810
:102A020083120313BA007408B9007308B80072087D
:102A1200B7000800F801F90183120313251C122DD7
:102A2200132D192D2708F8070318F90A2808F907A2
:102A320001300310A70DA80DFF3E031D1A2D013012
:102A42000310A60CA50CFF3E031D212D250826040C
:102A5200031D2C2D2D2D0D2D7908A6007808A5001B
:102A6200080083120313A400A001A1017208F4005C
:102A7200F5017408A2007508A300241C412D422D03
:102A8200482D2208A0070318A10A2308A107013034
:102A92000310A20DA30DFF3E031D492D0310A40C2C
:102AA2002408031D552D562D3E2D2108F300200824
:102AB200F200080000300A168A1171240A168A11DF
:102AC2003430F700F130F600F60B652DF70B652D6B
:102AD2006A2D30300A128A11E1270A168A110D3046
:102AE200F700FB30F600F60B742DF70B742D792DE1
:102AF20030300A128A11E1270A168A111D30F700B6
:102B02009130F600F60B832DF70B832D30300A122D
:102B12008A11E1270A168A1138300A128A11E1272E
:102B22000A168A110C300A128A11E1270A168A1132
:102B320006300A128A11E1270A168A1108000030AB
:102B420083120313A4000030A3000030A20000305F
:102B5200A10075087404730472040319B12DB22D17
:102B6200FF2DA501A50AC22D0130A0000310F20D10
:102B7200F30DF40DF50DA00BB72D0130A0002008C8
:102B8200A507F51FC52DC62DB52D0130A0000310D8
:102B9200A10DA20DA30DA40DA00BC82D75087902DD
:102BA200031DDD2D74087802031DDD2D73087702E5
:102BB200031DDD2D72087602031CE02DE12DF02DA0
:102BC2007208F6027308031C730FF7027408031CE1
:102BD200740FF8027508031C750FF90221140130F5
:102BE2000310F50CF40CF30CF20CFF3E031DF12D57
:102BF2000130A502031DFE2DFF2DC62D2408F50070
:102C02002308F4002208F3002108F20008008312CE
:102C12000313A101F31F0E2E0F2E162EF209F30934
:102C2200F20A0319F30AA101A10AF51F192E1A2E9D
:102C3200232EF409F509F40A0319F50A0130F60006
:102C42007608A106A201A3017208730403192A2EB1
:102C52002B2E622EA001A00A392E01300310F20D94
:102C6200F30DFF3E031D2F2E0130F6007608A0075C
:102C7200F31F3C2E3D2E2E2E01300310A20DA30D6C
:102C8200FF3E031D3E2E73087502031D4A2E720875
:102C92007402031C4D2E4E2E552E7208F402730838
:102CA200031CF503F502221401300310F30CF20C9D
:102CB200FF3E031D562E0130A002031D612E622E1F
:102CC2003D2E21080319662E672E6C2EA209A30938
:102CD200A20A0319A30A2308F3002208F20008003B
:102CE200831203132A08031D772E782EA52E260899
:102CF200AB002708AC002808AD002908AE0006305A
:102D02000310AB0DAC0DAD0DAE0DFF3E031D812EBC
:102D12002E08F5002D08F4002C08F3002B08F20011
:102D22000030F9007A30F8001230F7000030F60077
:102D32000A168A11A0250A168A117208FF3E831606
:102D4200031399001811D12E2608AB002708AC00F6
:102D52002808AD002908AE0004300310AB0DAC0DFD
:102D6200AD0DAE0DFF3E031DAE2E2E08F5002D0853
:102D7200F4002C08F3002B08F2000030F9007A303E
:102D8200F8001230F7000030F6000A168A11A0256A
:102D92000A168A117208FF3E83160313990018154A
:102DA200181398161812831203139817181318166B
:102DB20018119810831603130615861208000310C3
:102DC200740D750D83120313A0002008F700770815
:102DD200031DEC2EED2EF62E0030F5000030F4002F
:102DE2000030F3000030F2005B2F7208A00073087D
:102DF200A1007408A2007508A3001F300310A30CE1
:102E0200A20CA10CA00CFF3E031DFF2E2008A40063
:102E12002408F600F417FF30F205FF30F305FF3007
:102E2200F4050030F5059630F702F71F192F1A2F17
:102E3200342F7708803A973E0318202F212F222F14
:102E4200ED2E01300310F50CF40CF30CF20CFF3EE6
:102E5200031D232F0130A0002008F707031D322F86
:102E6200332F222F4B2F20307702031C392F3A2F7A
:102E7200462FED2E0130A0000310F20DF30DF40DDC
:102E8200F50DA00B3D2F0130F7027708031D4A2FE5
:102E92004B2F3B2F760803194F2F502F5B2FF20930
:102EA200F309F409F509F20A0319F30A0319F40AFA
:102EB2000319F50A08000030720583120313A000FB
:102EC20000307305A10080307405A2007F307505C3
:102ED200A3002308220421042004031D712F722F52
:102EE2007A2F0030F5000030F4000030F30000309B
:102EF200F20000307605A00000307705A100803096
:102F02007805A2007F307905A3002308220421045A
:102F12002004031D8D2F8E2F962F0030F9000030D4
:102F2200F8000030F7000030F600F51F992F9A2FB5
:102F3200BE2F0030A0000030A1000030A20080307F
:102F4200A3007208A0027308031C730FA92FAA2FF3
:102F5200A1027408031C740FAF2FB02FA2027508D0
:102F6200031C750FB52FB62FA3022308F500220804
:102F7200F4002108F3002008F200F91FC12FC22F2C
:102F8200E62F0030A0000030A1000030A200803007
:102F9200A3007608A0027708031C770FD12FD22F47
:102FA200A1027808031C780FD72FD82FA202790824
:102FB200031C790FDD2FDE2FA3022308F90022085C
:102FC200F8002108F7002008F6008030F50680306E
:102FD200F90679087502031DF82F78087402031D9B
:102FE200F82F77087302031DF82F76087202031870
:0E2FF200FB2FFC2FFE2F0310FF2F03140800EF
:04400E00D420FF3F7C
:00000001FF
