:020000040000FA
:060000000A128A110C280F
:10000800FE00030EF0000A08F1000A128A11242AE1
:100018000A128A110F2883010A128A1113280A1258
:100028008A1118220A128A11023083120313A200BD
:100038000430A100B930A000A00B2028A10B202873
:10004800A20B202827280A128A114D210A128A1188
:100058000A128A110B220A128A1102308312031320
:10006800A2000430A100B930A000A00B3928A10BD0
:100078003928A20B39284028F601F60A01300A125D
:100088008A11B7210A128A1115300A128A1192218F
:100098000A128A11023083120313A2000430A1004D
:1000A800B930A000A00B5628A10B5628A20B562841
:1000B8005D28F601F60A02300A128A11B7210A12DF
:1000C8008A113E300A128A1192210A128A110330CB
:1000D80083120313A2000830A1007630A000A00B01
:1000E8007328A10B7328A20B732800000A128A1127
:1000F8000B220A128A11F601F60A01300A128A1135
:10010800B7210A128A1125300A128A1192210A127D
:100118008A11F601F60A02300A128A11B7210A1268
:100128008A1132300A128A1192210A128A11033076
:1001380083120313A2000830A1007630A000A00BA0
:10014800A328A10BA328A20BA32800000A128A1136
:100158000B220A128A11F601F60A01300A128A11D4
:10016800B7210A128A1101300A128A1192210A1241
:0A0178008A112C280A128A110C28A3
:1002000001308A000408840A820700347734773486
:1002100077342E3465346C3465346334743472341A
:100220006F3453346F346D3465342E3463346F342B
:100230006D3400344C344334443420344C34693409
:1002400062347234613472347934203466346F34F9
:100250007234003444346534763465346C346F342D
:100260007034653464342034423479340034653475
:100270006C3465346334743472346F3453346F3493
:100280006D34653400344D3450344C344134423490
:100290002034583443343834003400300A128A1180
:1002A0002B220A128A113430F700F130F600F60BD7
:1002B0005729F70B57295C2930300A128A11DB21A4
:1002C0000A128A110D30F700FB30F600F60B662992
:1002D000F70B66296B2930300A128A11DB210A12CA
:1002E0008A111D30F7009130F600F60B7529F70BD7
:1002F000752930300A128A11DB210A128A1138302E
:100300000A128A11DB210A128A110C300A128A1190
:10031000DB210A128A1106300A128A11DB210A1225
:100320008A110800F700F501F601A9297508770779
:1003300084000A128A1100210A128A110A128A11F3
:10034000F5210A128A110130F5070318F60A003068
:10035000F6077508770784000A128A1100210A122D
:100360008A11003A031DB529B62996290800F8001C
:100370007803031DBC29BD29C92976087F3EF700F3
:100380007708F90079080A128A11DB210A128A110A
:10039000DA2902307806031DCE29CF29DA2976081A
:1003A000BF3EF7007708F90079080A128A11DB21AD
:1003B0000A128A110800F50083120313071075084A
:1003C0000A128A112B220A128A118312031387142C
:1003D0000D30F400FB30F300F30BEC29F40BEC29A7
:1003E000F1298312031387100800F400831203130A
:1003F000071474080A128A112B220A128A11831216
:10040000031387141A30F300F30B042A000083123D
:1004100003138710080000300A128A11DB210A1228
:100420008A1101300A128A11DB210A128A1108008E
:10043000FF3083160313850088018701831203139D
:10044000850187018801080071088A00700E830009
:10045000FE0E7E0E0900F20072088312031388005C
:02046000080092
:04400E00D420FF3F7C
:00000001FF
