:020000040000FA
:060000000A128A110C280F
:10000800FE00030EF2000A08F3000A128A11E22B1E
:100018000A128A110F28F601F701F801F901831372
:100028003E30840058300A128A11DF240A128A11DD
:1000380083010A128A1120280A128A1192240A12AC
:100048008A110A128A1165230A128A110A128A1160
:10005800D2240A128A110A128A11A8240A128A11B1
:1000680000300A128A11A6210A128A118312031378
:10007800A101A10A01300A128A113B240A128A112D
:10008800013083120313A1008030A2000A128A11E2
:10009800B0230A128A11083083120313BC003C08EB
:1000A800A10001300A128A113B240A128A11043075
:1000B80083120313A1008030A2000A128A11B02310
:1000C8000A128A110F3083120313BC003C08A100E6
:1000D80001300A128A113B240A128A11073083124E
:1000E8000313A1008030A2000A128A11B0230A1259
:1000F8008A11053083120313AA000030AB004308AD
:10010800BC00BD013C08A2003D08A300FF30A000D0
:100118000030A1000A128A11FC220A128A118312E5
:1001280003132108A9002008A8000A128A11142420
:100138000A128A11831203132808AE002908AF0097
:100148000030AF1BFF30B000B10001300A128A1135
:10015800EA200A128A11831203133108C1003008F9
:10016800C0002F08BF002E08BE00A101A10A02305E
:100178000A128A113B240A128A114430831203138B
:10018800A1000030A2000A128A11B0230A128A11B3
:10019800083083120313BC003C08A10002300A1285
:1001A8008A113B240A128A11831203134208BC00E5
:1001B800BD013C08A1003D08A2000A128A11B02323
:1001C8000A128A113A280A128A110C288312031378
:1001D800B60036080319F128F2280629B11FF528B8
:1001E800F62806292E09B8002F09B9003009BA00E7
:1001F8003109BB00B80A0319B90A0319BA0A031965
:10020800BB0A0E293108BB003008BA002F08B90014
:100218002E08B800310830042F042E04031D1529B8
:1002280016291F290030B1000030B0000030AF009F
:100238000030AE00A5299630B2003208B700312947
:100248000130B2003208B70701300310BB0CBA0CFA
:10025800B90CB80CFF3E031D2929FE303B05031DD0
:1002680036293729242953290130B2003208B70723
:100278000130B807003003180130B90700300318FF
:100288000130BA07003003180130BB0701300310F2
:10029800BB0CBA0CB90CB80CFF3E031D4B29FF3040
:1002A8003B05031D58295929382965290130B7020A
:1002B8000130B2000310B80DB90DBA0DBB0DB20B69
:1002C8005E29BA1B682969296F2902303702031889
:1002D8006E296F295A293718722973297B29FF300B
:1002E800B805FF30B9057F30BA05FF30BB050310EC
:1002F800B70C3708B200B301B401B50118300310C8
:10030800B20DB30DB40DB50DFF3E031D83293208A0
:10031800B8043308B9043408BA043508BB043608ED
:100328000319972998299D29B11F9B299C299D2943
:10033800BB173B08B1003A08B0003908AF003808CD
:10034800AE000800F4007408031DAB29AC29B229DB
:10035800831203139F121F129F111F117403031D91
:10036800B629B729BD29831203139F121F129F11A3
:100378001F1502307406031DC229C329C929831217
:1003880003139F121F129F151F1103307406031DBC
:10039800CE29CF29D529831203139F121F129F1527
:1003A8001F1504307406031DDA29DB29E12983129D
:1003B80003139F121F169F111F1105307406031D8A
:1003C800E629E729ED29831203139F121F169F11AF
:1003D8001F1506307406031DF229F329F929831223
:1003E80003139F121F169F151F1107307406031D54
:1003F800FE29FF29052A831203139F121F169F1532
:100408001F1508307406031D0A2A0B2A112A8312A5
:1004180003139F161F129F111F1109307406031D25
:10042800162A172A1D2A831203139F161F129F11BB
:100438001F150A307406031D222A232A292A83122B
:1004480003139F161F129F151F110B307406031DEF
:100458002E2A2F2A352A831203139F161F129F153F
:100468001F150C307406031D3A2A3B2A412A8312B1
:1004780003139F161F169F111F110D307406031DBD
:10048800462A472A4D2A831203139F161F169F11C7
:100498001F15831203139F140800F0007008031D32
:1004A800562A572A5D2A831203139F121F129F117F
:1004B8001F117003031D612A622A682A831203131D
:1004C8009F121F129F111F1502307006031D6D2AFF
:1004D8006E2A742A831203139F121F129F151F116D
:1004E80003307006031D792A7A2A802A831203139F
:1004F8009F121F129F151F1504307006031D852AB1
:10050800862A8C2A831203139F121F169F111F110C
:1005180005307006031D912A922A982A8312031324
:100528009F121F169F111F1506307006031D9D2A66
:100538009E2AA42A831203139F121F169F151F11A8
:1005480007307006031DA92AAA2AB02A83120313AA
:100558009F121F169F151F1508307006031DB52A18
:10056800B62ABC2A831203139F161F129F111F114C
:1005780009307006031DC12AC22AC82A8312031330
:100588009F161F129F111F150A307006031DCD2AD2
:10059800CE2AD42A831203139F161F129F151F11E8
:1005A8000B307006031DD92ADA2AE02A83120313B6
:1005B8009F161F129F151F150C307006031DE52A84
:1005C800E62AEC2A831203139F161F169F111F1188
:1005D8000D307006031DF12AF22AF82A831203133C
:1005E8009F161F169F111F15831203139F140800CF
:1005F80083120313A501A11F022B032B0A2BA009A9
:10060800A109A00A0319A10AA501A50AA31F0D2B78
:100618000E2B172BA209A309A20A0319A30A01305A
:10062800F4007408A506A601A701200821040319EF
:100638001E2B1F2B562BA401A40A2D2B01300310AF
:10064800A00DA10DFF3E031D232B0130F4007408FB
:10065800A407A11F302B312B222B01300310A60D2C
:10066800A70DFF3E031D322B21082302031D3E2B3D
:1006780020082202031C412B422B492B2008A202EE
:100688002108031CA303A302261401300310A10CA4
:10069800A00CFF3E031D4A2B0130A402031D552B5D
:1006A800562B312B250803195A2B5B2B602BA609D7
:1006B800A709A60A0319A70A2708A1002608A00067
:1006C800080000300A128A11E7240A128A111A3027
:1006D80083120313A200F730A100A10B712BA20B08
:1006E800712B762B30300A128A117A240A128A1159
:1006F800073083120313A2007C30A100A10B822BC8
:10070800A20B822B000030300A128A117A240A12B6
:100718008A110F3083120313A2004730A100A10BE6
:10072800932BA20B932B30300A128A117A240A12C7
:100738008A1138300A128A117A240A128A110C3066
:100748000A128A117A240A128A1106300A128A11A8
:100758007A240A128A11080083120313A301A40140
:10076800CF2B23082107840024080318240A220712
:10077800FF000A128A1161240A128A110A128A11C8
:10078800BD240A128A11013083120313A307031828
:10079800A40A0030A40723082107840024080318AA
:1007A800240A2207FF000A128A1161240A128A11F8
:1007B800003A031DE02BE12BB52B0800831203132D
:1007C8000C1FE72BE82B0D2C7908031DEC2BED2BC8
:1007D800FC2B1E08F1007108C30001300A128A11AF
:1007E80051220A128A110130F1007108F907072C09
:1007F8001E08F1007108C20000300A128A11512245
:100808000A128A11F90183120313430886000C1394
:100818009F1473088A00720E8300FE0E7E0E090074
:1008280083120313AC01AD01281C1B2C1C2C222C99
:100838002A08AC070318AD0A2B08AD0701300310CE
:10084800AA0DAB0DFF3E031D232C01300310A90C8C
:10085800A80CFF3E031D2A2C28082904031D352C4B
:10086800362C182C2D08A9002C08A8000800831283
:100878000313A3002303031D422C432C4F2C2108F0
:100888007F3EA2002208A40024080A128A117A24B2
:100898000A128A11602C02302306031D542C552C91
:1008A800602C2108BF3EA2002208A40024080A12D6
:1008B8008A117A240A128A110800FF1B6B2C8313F1
:1008C8007F1883170008840A0319FF0A08000430F8
:1008D8008A000408840A820700345334313400340F
:1008E8005334323400345334333400348312031312
:1008F800A000071020080A128A11E7240A128A1198
:10090800831203138714C730F5008A2CF50B892C42
:100918008D2C8E2C8312031387100800FF3083164A
:10092800031385008801870186018312031385015B
:100938008701880186018B170B1783160317880117
:100948008901081488140800831203131F179F13C2
:10095800831603131F129F129F13831203130C1382
:10096800831603130C178B170B17831203131F140B
:10097800080083120313A000071420080A128A1122
:10098800E7240A128A118312031387140330F5002F
:10099800F50BCC2C831203138710080000300A12C1
:1009A8008A117A240A128A1101300A128A117A24C9
:1009B8000A128A11080064008001840A04060319D7
:1009C80000340406E02CF400740883120313880032
:0209D800080015
:04400E00D420FF3F7C
:00000001FF
