:020000040000FA
:060000000A128A110C280F
:10000800FE00030EF0000A08F1000A128A11452AC0
:100018000A128A110F2883010A128A1113280A1258
:100028008A1139220A128A118230FA00DD30F90069
:10003800F90B1C28FA0B1C2821280A128A115021B6
:100048000A128A110A128A112C220A128A11823083
:10005800FA00DD30F900F90B2F28FA0B2F28342885
:10006800F601F60A01300A128A11AB200A128A1127
:1000780015300A128A11D5210A128A118230FA0023
:10008800DD30F900F90B4628FA0B46284B28F60113
:10009800F60A02300A128A11AB200A128A113E307F
:1000A8000A128A11D5210A128A110B30FB00263058
:1000B800FA005D30F900F90B5F28FA0B5F28FB0B9B
:1000C8005F2866280A128A112C220A128A11F60160
:1000D800F60A01300A128A11AB200A128A11253059
:1000E8000A128A11D5210A128A11F601F60A02307B
:1000F8000A128A11AB200A128A1132300A128A11A6
:10010800D5210A128A110B30FB002630FA005D3027
:10011800F900F90B8D28FA0B8D28FB0B8D289428F4
:100128000A128A112C220A128A11F601F60A0130E3
:100138000A128A11AB200A128A1101300A128A1196
:10014800D5210A128A1126280A128A110C2883122C
:100158000313A0002003031DB228B328D82876086B
:100168007F3EF7007708A3002308F7000430031048
:10017800F70CFF3E031DBB287708F8007808A1009C
:1001880023080F39F7007708A20021080A128A11FC
:1001980013220A128A118312031322080A128A11DF
:1001A80013220A128A11022902302006031DDD28B3
:1001B800DE2802297608BF3EF7007708A300230847
:1001C800F70004300310F70CFF3E031DE6287708FC
:1001D800F8007808A10023080F39F7007708A20073
:1001E80021080A128A1113220A128A118312031390
:1001F80022080A128A1113220A128A1108000130F1
:100208008A000408840A8207003477347734773404
:100218002E3465346C3465346334743472346F341A
:1002280053346F346D3465342E3463346F346D3425
:1002380000344C344334443420344C34693462340C
:100248007234613472347934203466346F347234E1
:10025800003444346534763465346C346F34703427
:1002680065346434203442347934003465346C3471
:1002780065346334743472346F3453346F346D348A
:10028800653400344D3450344C34413442342034D5
:10029800583443343834003400300A128A11972114
:1002A8000A128A111A30F700F830F600F60B5A29AC
:1002B800F70B5A2900003F300A128A1113220A123A
:1002C8008A110730F7007D30F600F60B6929F70B25
:1002D80069293F300A128A1113220A128A11313011
:1002E800F600F60B752978293F300A128A11132275
:1002F8000A128A1138300A128A1113220A128A1134
:1003080008300A128A1113220A128A1101300A12BD
:100318008A1113220A128A1107300A128A1113222B
:100328000A128A110800F200831203130810721CC3
:100338009E299F29A1298814A2298810F21CA52981
:10034800A629A8290815A92908117208033903192B
:10035800AE29AF29B1298815B2298811721DB5298E
:10036800B629B8290816B9290812720805390319D7
:10037800BE29BF29C1298816C229881272080639E0
:100388000319C729C829CA290817CB2908137208CD
:1003980007390319D029D129D3298817D4298813D3
:1003A8000800F800F601F701EC29760878078400C0
:1003B8000A128A1103210A128A110A128A11FA21D1
:1003C8000A128A110130F6070318F70A0030F707F6
:1003D8007608780784000A128A1103210A128A1102
:1003E800003A031DF829F929D9290800F4007408EE
:1003F800F3007308F50083120313071475080A1233
:100408008A1197210A128A118312031387140D3057
:10041800F300F30B0D2A8312031387100800F5006D
:1004280083120313071075080A128A1197210A12FA
:100438008A118312031387140730F4007D30F30008
:10044800F30B242AF40B242A8312031387100800C1
:1004580000300A128A1113220A128A1101300A1274
:100468008A1113220A128A110800FF308316031317
:10047800850088018701831203138501870188019C
:10048800080071088A00700E8300FE0E7E0E0900B7
:04400E00D420FF3F7C
:00000001FF
