:020000040000FA
:060000000A128A11F62F1E
:100DFE0083120313850186018701071487140715D3
:100E0E008712071387138316031788018901831628
:100E1E0003138601850187110712871207138713A3
:100E2E00860108008312031387160230F80045303E
:100E3E00F700A930F600F60B222FF70B222FF80B36
:100E4E00222F292F83120313871207170230F8005F
:100E5E004530F700A930F600F60B332FF70B332F82
:100E6E00F80B332F3A2F8312031307138717023011
:100E7E00F8004530F700A930F600F60B442FF70BBB
:100E8E00442FF80B442F4B2F8312031387130800A4
:100E9E000A128A11FF260A128A11F401F501831231
:100EAE000313071C5B2F5C2F7A2F1430FA00793056
:100EBE00F900F90B602FFA0B602F652F83120313C5
:100ECE0007186A2F6B2F7A2F87110712F201F30181
:100EDE00F001F1010A128A1119270A128A11013042
:100EEE00F4000030F50074037504031D7F2F802F6E
:100EFE00562F83120313871C852F862FA92F14308C
:100F0E00FA007930F900F90B8A2FFA0B8A2F8F2FFE
:100F1E00831203138718942F952FA92F0130F207F0
:100F2E000318F30A0030F3070508031D9F2FA02FA7
:100F3E00A52F0130F90079088507A92F0508F900BA
:100F4E0079078500083072067304031DAF2FB02F8A
:100F5E00B12F8715071DB42FB52FD82F1430FA00D7
:100F6E007930F900F90BB92FFA0BB92FBE2F831276
:100F7E0003130719C32FC42FD82F0130F0070318FE
:100F8E00F10A0030F1070608031DCE2FCF2FD42F04
:100F9E000130F90079088607D82F0608F90079077D
:100FAE008600083070067104031DDE2FDF2FE02F40
:100FBE0007160830720673040319E62FE72FEE2F7B
:100FCE00083070067104031DED2FEE2F562FF4011D
:100FDE00F50185018601562F0A128A110028F001AB
:100FEE00F101F201F301F401F50183010A128A11F4
:020FFE004F2F73
:04400E00D420FF3F7C
:00000001FF
