:020000040000FA
:060000000A128A110C280F
:10000800FE00030EF1000A08F2000A128A111628EF
:100018000A128A110F28F701F801F90183010A125F
:100028008A117F280B1C19281A2847280B108312BD
:100038000313861C2028212830280130F00070087E
:10004800F70702307702031C2A282B283028F701EB
:10005800013088020130F902061C33283428472869
:100068000130F0007008F80702307802031C3D28C0
:100078003E284728F8010130F00070088807013051
:10008800F0007008F90772088A00710E8300FE0EEE
:100098007E0E09008316031788018901831603134E
:1000A8008801831203138501FF308316031386002A
:1000B80083120313860188018316031316149614FA
:1000C8008B158B170B170B100800F60083160313FC
:1000D8008712761D70287128752875089400871571
:1000E80079287308750494008711760874048312BC
:1000F8000313940008000A128A114E200A128A116A
:10010800F301F401F50124300A128A1169200A1258
:0A0118008A118D280A128A110C28A2
:04400E00D420FF3F7C
:00000001FF
