:020000040000FA
:060000000A128A110C280F
:10000800FE00030EF2000A08F3000A128A11BF2844
:100018000A128A110F28F80183010A128A11F0289E
:10002800F4007408031D19281A28202883120313C2
:100038009F121F129F111F117403031D24282528C6
:100048002B28831203139F121F129F111F150230B2
:100058007406031D302831283728831203139F1292
:100068001F129F151F1103307406031D3C283D28DD
:100078004328831203139F121F129F151F15043064
:100088007406031D482849284F28831203139F121A
:100098001F169F111F1105307406031D542855287B
:1000A8005B28831203139F121F169F111F1506301A
:1000B8007406031D602861286728831203139F12A2
:1000C8001F169F151F1107307406031D6C286D2815
:1000D8007328831203139F121F169F151F150830CC
:1000E8007406031D782879287F28831203139F1626
:1000F8001F129F111F1109307406031D84288528BB
:100108008B28831203139F161F129F111F150A3085
:100118007406031D902891289728831203139F16AD
:100128001F129F151F110B307406031D9C289D2854
:10013800A328831203139F161F129F151F150C3037
:100148007406031DA828A928AF28831203139F1635
:100158001F169F111F110D307406031DB428B528F2
:10016800BB28831203139F161F169F111F15831296
:1001780003139F140800831203130C1FC428C528F7
:10018800D428C730F100C828F10BC728CB28CC28C1
:10019800831203131E08F1007108F8000C139F1452
:1001A8008C1DD728D828E9280A128A114B210A124F
:1001B8008A1183120313880006080A128A115B2128
:1001C8000A128A11831203138C1173088A00720EA3
:1001D8008300FE0E7E0E09000A128A113C210A12C3
:1001E8008A110A128A1127210A128A1100300A126A
:1001F8008A1114200A128A11F401F501F60124303B
:100208000A128A1111210A128A117808831203131B
:10021800860009290A128A110C28F700831603138D
:100228008712771D182919291D2976089400871522
:1002380021297408760494008711770875048312BD
:10024800031394000800831203131F179F138316C8
:1002580003131F129F129F13831203130C13831689
:1002680003130C178B170B17831203131F140800A3
:1002780083160317880189010814013083160313B4
:1002880085008601831203138601850108000A127E
:100298008A1154210A128A118312031313080800C1
:1002A80083160313141C59295A2954290800F000ED
:0A02B800700883120313930008007E
:04400E00D420FF3F7C
:00000001FF
