:020000040000FA
:060000000A128A110C280F
:10000800FE00030EF0000A08F1000A168A11BA2F42
:100018000A128A110F28FA01FB0183120313D10176
:10002800D201D301D40183010A128A15242E831226
:10003800031328088039AD002D08B2002808AD0048
:100048002D07AE002E08B800A71F2B282C282D2816
:10005800381438080319312832284128380A031D72
:10006800362837283F280030A8000030A700003085
:10007800A6000030A500A71749280030A8000030C6
:10008800A7000030A6000030A5002C088039AD007C
:100098002D08B2062C08AD002D07AE002E08B300BF
:1000A800AB1F5728582859283314330803195D28DB
:1000B8005E286D28330A031D622863286B280030E8
:1000C800AC000030AB000030AA000030A900AB172C
:1000D80075280030AC000030AB000030AA000030BA
:1000E800A9003308031979287A287F283808031DBE
:1000F8007E287F2888280030A8000030A70000301C
:10010800A6000030A5007B2B2508AD002D08F200C5
:100118002B080A128A15BD200A128A117308831245
:100128000313BE007208BD003D08AD00AE01AF016B
:10013800B0013008B7002F08B6002E08B5002D080A
:10014800B4003E08AD00AE01AF01B0013008BC00FC
:100158002F08BB002E08BA002D08B9002608AD00EC
:100168002D08F2002A080A128A15BD200A128A11DF
:10017800730883120313BE007208BD003D08AD006A
:10018800AE01AF01B0012D08B4072E080311031802
:10019800013E0319D028B5072F0803110318013EA3
:1001A8000319D728B607300803110318013E0319AD
:1001B800DE28B7073E08AD00AE01AF01B0012D083B
:1001C800B9072E0803110318013E0319EC28BA07D2
:1001D8002F0803110318013E0319F328BB07300841
:1001E80003110318013E0319FA28BC072708AD00BC
:1001F8002D08F20029080A128A15BD200A128A1150
:10020800730883120313BE007208BD003D08AD00D9
:10021800AE01AF01B0012D08B4072E080311031871
:10022800013E03191829B5072F0803110318013EC9
:1002380003191F29B607300803110318013E0319D3
:100248002629B7073E08AD00AE01AF01B0012D0861
:10025800B9072E0803110318013E03193429BA07F8
:100268002F0803110318013E03193B29BB07300867
:1002780003110318013E03194229BC070830AD00D9
:100288000310B40DB50DB60DB70DAD0B44292608F6
:10029800AD002D08F20029080A128A15BD200A129D
:1002A8008A11730883120313BE007208BD003D084B
:1002B800AD003E08AE00AF01B0012D08B4072E080E
:1002C80003110318013E03196A29B5072F08031102
:1002D8000318013E03197129B607300803110318E2
:1002E800013E03197829B7072508AD002D08F2004B
:1002F8002A080A128A15BD200A128A117308831265
:100308000313BE007208BD003D08AD003E08AE00F4
:10031800AF01B0012D08B4072E0803110318013EE0
:1003280003199729B5072F0803110318013E03196C
:100338009E29B607300803110318013E0319A529A1
:10034800B7070830AD000310B40DB50DB60DB70DE5
:10035800AD0BA7292508AD002D08F20029080A12BF
:100368008A15BD200A128A11730883120313BE006E
:100378007208BD003D08AD003E08AE00AF01B001F7
:100388002D08B4072E0803110318013E0319CD29BF
:10039800B5072F0803110318013E0319D429B6071E
:1003A800300803110318013E0319DB29B707260893
:1003B800AD002D08F2002B080A128A15BD200A127A
:1003C8008A11730883120313BE007208BD003D082A
:1003D800AD003E08AE00AF01B0012D08B9072E08E8
:1003E80003110318013E0319FA29BA072F0803114C
:1003F8000318013E0319012ABB073008031103182B
:10040800013E0319082ABC072708AD002D08F20091
:100418002A080A128A15BD200A128A117308831243
:100428000313BE007208BD003D08AD003E08AE00D3
:10043800AF01B0012D08B9072E0803110318013EBA
:100448000319272ABA072F0803110318013E0319B5
:100458002E2ABB07300803110318013E0319352A59
:10046800BC072708AD002D08F2002B080A128A15D0
:10047800BD200A128A11730883120313BE00720882
:10048800BD003D08AD003E08AE00AF01B001083028
:100498000310AD0DAE0DAF0DB00DFF3E031D4C2A80
:1004A8002D08B9072E0803110318013E03195D2A08
:1004B800BA072F0803110318013E0319642ABB0762
:1004C800300803110318013E03196B2ABC073408CE
:1004D800AD003508AE003608AF003708B000183058
:1004E8000310B00CAF0CAE0CAD0CFF3E031D742A0C
:1004F8002D08B9072E0803110318013E0319852A90
:10050800BA072F0803110318013E03198C2ABB07E9
:10051800300803110318013E0319932ABC07083059
:10052800AD000310B40DB50DB60DB70DAD0B952A82
:1005380038083307AD00AE01AE0D2D08823EBD0070
:100548002E080318013EFF3EBE00C72A0130AD0049
:100558000310B90DBA0DBB0DBC0DAD0BAC2AB71FFE
:10056800B62AB72AB82A39140130AD000310B40DE1
:10057800B50DB60DB70DAD0BBA2AFF30BD07031880
:10058800BE0AFF30BE07BB1FCA2ACB2AAA2AB3015C
:10059800B71FCF2AD02AEC2AFF303405AD00FF3030
:1005A8003505AE00FF303605AF007F303705B000A7
:1005B80030082F042E042D040319E32AE42AE72A1D
:1005C800B301B30AEC2A391CEA2AEB2AEC2AE42AFA
:1005D80033080319F02AF12A222B0130B907003019
:1005E80003180130BA07003003180130BB07003088
:1005F80003180130BC073C1C022B032B222B3908A3
:10060800AD003A08AE003B08AF003C08B00001302E
:10061800B100300DB00CAF0CAE0CAD0CB10B0D2B06
:100628003008BC002F08BB002E08BA002D08B900FE
:100638000130BD070318BE0A0030BE073E08803AE5
:10064800FF0080307F02031D2B2BFF303D02031C6F
:100658002E2B2F2B3A2B7F3083120313BC008030B4
:10066800BB000030BA000030B9006F2B83120313AF
:100678003E08803AFF0080307F02031D452B013081
:100688003D020318482B492B552B003083120313C6
:10069800BC000030BB000030BA000030B900B20125
:1006A8006F2B831203133D08AD002D08B800FF30EF
:1006B800B905FF30BA057F30BB050030BC05381CD2
:1006C800662B672B682BBB173808AD0003102D0C61
:1006D800AE002E08BC003208AD002D08BC043C0852
:1006E800A8003B08A7003A08A6003908A50008009A
:1006F8007508803983120313A0002008A800750824
:10070800A0002007A1002108AA00F41F8C2B8D2B24
:100718008E2B2A142A080319922B932BA32B2A0A0F
:10072800031D972B982BA02B0030F5000030F40008
:100738000030F3000030F200F417F501AB2B003065
:10074800F5000030F4000030F3000030F2007908C2
:100758008039A0002008A900290828060319B52B0C
:10076800B62BB72B28177908A0002007A10021086D
:10077800A900F81FC02BC12BC22B29142908031963
:10078800C62BC72BD72B290A031DCB2BCC2BD42B3D
:100798000030F9000030F8000030F7000030F600B3
:1007A800F817F901DF2B0030F9000030F8000030AD
:1007B800F7000030F6002A0829020318E42BE52B7D
:1007C800292C281FE82BE92BED2B8030A0002008CE
:1007D800A8062A08A0002008AB002908A0002008C5
:1007E800AA002B08A0002008A9007208A000200871
:1007F800AB007608A0002008F2002B08A000200813
:10080800F6007308A0002008AB007708A0002008B5
:10081800F3002B08A0002008F7007408A0002008A7
:10082800AB007808A0002008F4002B08A0002008DE
:10083800F8007508A0002008AB007908A00020087F
:10084800F5002B08A0002008F900AB012908A0003A
:10085800A1012108A3002A082002A200031CA30367
:100868002308803AFF0080307F02031D3D2C1A3098
:100878002202031C402C412C7E2C7508740473043E
:100888007204031D482C4A2C01304B2C0030831273
:100898000313A0002008AB000030F5000030F4007E
:1008A8000030F3000030F2002908A0002008AA0058
:1008B800862C2B1C602C612C6A2C2B08A0000310A2
:1008C800200C0138A1002108AB006C2C0310AB0CE4
:1008D800721C6F2C702C712CAB170130A000750D99
:1008E800F50CF40CF30CF20CA00B732C0130A000E7
:1008F8002008AA078312031329082A02031C852C3F
:10090800862C5D2C281B892C8A2CD52C2A08031DA3
:100918008E2C8F2C982C0030F5000030F40000301D
:10092800F3000030F200032E7608F207770803116F
:100938000318013E0319A12CF307780803110318C3
:10094800013E0319A82CF407790803110318013E86
:100958000319AF2CF507751CB22CB32C892D2B1C51
:10096800B62CB72CC02C2B08A0000310200C013883
:10097800A1002108AB00C22C0310AB0C721CC52CC3
:10098800C62CC72CAB170130A000750DF50CF40C64
:10099800F30CF20CA00BC92C0130A0002008AA0708
:1009A800892D7508803AFF007908803A7F02031D77
:1009B800E72C78087402031DE72C77087302031DDF
:1009C800E72C760872020318EA2CEB2C432DFF3033
:1009D800A000FF30A100FF30A200FF30A30076087E
:1009E800A4007708A5007808A6007908A70072086F
:1009F800A4027308031C730F022D032DA5027408AB
:100A0800031C740F082D092DA6027508031C750F09
:100A18000E2D0F2DA7022408A00725080318250F5F
:100A2800162D172DA10726080318260F1C2D1D2D7E
:100A3800A20727080318270AA3072308F500220896
:100A4800F4002108F3002008F2008030A0002008FC
:100A5800A806AB09AB0A2B08031D332D342D512DE5
:100A68000130F207003003180130F3070030031893
:100A78000130F407003003180130F507512D7608CE
:100A8800F2027708031C770FF3027808031C780F2B
:100A9800F4027908031C790FF502750874047304CD
:100AA8007204031D582D592D852D2B08031D5D2D0E
:100AB8005E2D852D0030F5000030F4000030F30085
:100AC8000030F200032E0130A0000310F20DF30DE8
:100AD800F40DF50DA00B692DAB1F732D742D752D1D
:100AE80072142B1C782D792D7C2D0314AB0D7E2DC3
:100AF8000310AB0D2A080319822D832D852D013093
:100B0800AA02F41F882D892D672DA901AB1F8D2DF1
:100B18008E2D9C2D2B087F390319932D942D972DFD
:100B2800A901A90A9C2D721C9A2D9B2D9C2D942DF0
:100B380029080319A02DA12DD52D0130F207003069
:100B480003180130F307003003180130F4070030B0
:100B580003180130F507751CB22DB32DD52D720879
:100B6800A0007308A1007408A2007508A300013052
:100B7800A400230DA30CA20CA10CA00CA40BBD2D4A
:100B88002308F5002208F4002108F3002008F200E9
:100B98002A0A0319D02DD12DD52D0130A000200807
:100BA800AA072A0A0319D92DDA2DDF2D2A08031DD1
:100BB800DE2DDF2DED2D0030F5000030F400003083
:100BC800F3000030F2002A08031DEB2DEC2DED2D6B
:100BD800A8012A1CF02DF12DF32DF417F72D7F30E5
:100BE800A0002008F4052A08A0000310200CA1008A
:100BF8002108F500A81F012E022E032EF517080064
:100C0800831203132D088039AE002E08B7002D0873
:100C1800AE002E07AF002F08BE00AC1F142E152EF5
:100C2800162E3E143E0803191A2E1B2E2B2E3E0A92
:100C3800031D1F2E202E282E0030AD000030AC00E2
:100C48000030AB000030AA00AC17AD01332E0030E5
:100C5800AD000030AC000030AB000030AA0029081D
:100C68008039AE002E08B7062908AE002E07AF005F
:100C78002F08BF00A81F412E422E432E3F143F08C5
:100C88000319472E482E582E3F0A031D4C2E4D2E71
:100C9800552E0030A9000030A8000030A700003011
:100CA800A600A817A901602E0030A9000030A800EE
:100CB8000030A7000030A6002908280427042604CD
:100CC800031D672E682E812E0030AD000030AC0069
:100CD8000030AB000030AA008030AC047F30AD0497
:100CE8003708AE002E08AD042D08A9002C08A8006E
:100CF8002B08A7002A08A600E02F3E08031D852E12
:100D0800862E8F2E0030A9000030A8000030A700E2
:100D18000030A600E02F3E08AE00AF012F08B1005A
:100D28003F082E02B000031CB10330087F3EB80014
:100D380031080318013E003EB9002D08B6002C0802
:100D4800B5002B08B4002A08B3000030AD0000300D
:100D5800AC000030AB000030AA000030BD0000300D
:100D6800BC000030BB000030BA00BF01052F3F08AF
:100D78000319BF2EC02EE02E0130AE000310B30DB4
:100D8800B40DB50DB60DAE0BC22E0130AE0003107A
:100D9800AA0DAB0DAC0DAD0DAE0BCB2EBD1FD52ED8
:100DA800D62ED72E2A140130AE000310BA0DBB0D73
:100DB800BC0DBD0DAE0BD92E29083602031DEE2E33
:100DC80028083502031DEE2E27083402031DEE2ED7
:100DD80026083302031CF12EF22E012F3D17260898
:100DE800B3022708031C270FB4022808031C280F86
:100DF800B5022908031C290FB6020130AE002E08DF
:100E0800BF071A303F02031C0A2F0B2FBB2E3608D0
:100E18003504340433040319122F132F322F3A14D4
:100E2800322F0130AE000310AA0DAB0DAC0DAD0D85
:100E3800AE0B172FBD1F212F222F232F2A1401306D
:100E4800AE000310BA0DBB0DBC0DBD0DAE0B252FAA
:100E5800FF30B8070318B90AFF30B907AC1F352FA0
:100E6800362F152FBF01BD1F3A2F3B2F572FFF30AD
:100E78003A05AE00FF303B05AF00FF303C05B0003F
:100E88007F303D05B100310830042F042E040319CA
:100E98004E2F4F2F522FBF01BF0A572F2A1C552FF5
:100EA800562F572F4F2F3F0803195B2F5C2F8D2F7D
:100EB8000130AA07003003180130AB0700300318CF
:100EC8000130AC07003003180130AD072D1C6D2F21
:100ED8006E2F8D2F2A08AE002B08AF002C08B0000B
:100EE8002D08B1000130B200310DB10CB00CAF0CBF
:100EF800AE0CB20B782F3108AD003008AC002F08CB
:100F0800AB002E08AA000130B8070318B90A003050
:100F1800B9073908803AFF0080307F02031D962FF9
:100F2800FF303802031C992F9A2FA82FFF30831205
:100F38000313B8000030B9000030AD000030AC0039
:100F48000030AB000030AA00831203133908803A3E
:100F5800FF0080307F02031DB32F013038020318D1
:100F6800B62FB72FC42F83120313B801B90100306D
:100F7800AD000030AC000030AB000030AA00B70173
:100F8800831203133808AE002E08BE003E1CCD2F76
:100F9800CE2FD02FAC17D42F7F30AE002E08AC0543
:100FA8003E08AE0003102E0CAF002F08AD00370826
:100FB800AE002E08AD04782E0800F4008312031347
:100FC800071074080A168A11AE270A128A118312AA
:100FD80003138714C730F300F12FF30BF02FF42F0E
:100FE800F52F831203138710080083160313141CAC
:100FF800FE2FFF2FF92F0800FF1B0A2883137F18E5
:1010080083170008840A0319FF0A080008308A00B9
:101018000408840A82070034543465346D3470340B
:101028006534723461347434753472346134203404
:10103800003443346F346E347434613464346F3440
:10104800723420340034413444344334203400347E
:101058005634203400345334313400345334323469
:0810680000345334333400342A
:1010760000300A128A11E1270A128A1501300A1273
:101086008A11E1270A128A150800F5008316031350
:101096008712751D4F285028542874089400871508
:1010A6005828720874049400871175087304831213
:1010B6000313940008008316031385018316031790
:1010C600880189018316031387018601880183122B
:1010D6000313870186018801FF30850083160313F9
:1010E60007160800F7007703031D7A287B28872850
:1010F60075087F3EF6007608F80078080A128A110D
:10110600E1270A128A15982802307706031D8C28D3
:101116008D2898287508BF3EF6007608F8007808EE
:101126000A128A11E1270A128A15080080308312F2
:101136000313AF063308F5003208F4003108F30054
:101146003008F2002F08F9002E08F8002D08F700E5
:101156002C08F6000A128A117C230A128A157508D1
:1011660083120313AF007408AE007308AD00720853
:10117600AC00080083120313A400A001A1017208A9
:10118600F400F5017408A2007508A300241CCC28FD
:10119600CD28D3282208A0070318A10A2308A107EF
:1011A60001300310A20DA30DFF3E031DD42803102A
:1011B600A40C2408031DE028E128C9282108F3000F
:1011C6002008F200080000300A168A11AE270A121B
:1011D6008A151A30F600F830F500F50BF028F60BF4
:1011E600F028000030300A128A11E1270A128A1507
:1011F6000730F6007D30F500F50BFF28F60BFF28CB
:1012060030300A128A11E1270A128A150F30F600C9
:101216004730F500F50B0D29F60B0D291229303054
:101226000A128A11E1270A128A1538300A128A111F
:10123600E1270A128A150C300A128A11E1270A12CE
:101246008A1506300A128A11E1270A128A15080041
:1012560083120313A001A101542920087507F80081
:101266007608F7000318F70AA01F3A29F70377084C
:10127600F900790883120313FF00780884000A1224
:101286008A1500200A128A150A168A11D6270A120A
:101296008A15013083120313A0070318A10A003030
:1012A600A10720087507F8007608F7000318F70A63
:1012B600A01F5E29F7037708F90079088312031344
:1012C600FF00780884000A128A1500200A128A157F
:1012D600003A031D6F297029302908008312031371
:1012E600A001A101A001A1019C2920087307F70014
:1012F6007408F6000318F60AA01F8229F60376087A
:10130600F800780883120313FF00770884000A1296
:101316008A1500200A128A150A168A11CA270A1285
:101326008A15013083120313A0070318A10A00309F
:10133600A1072108803AF60080307602031DA52910
:10134600750820020318A829A929C729831203139F
:1013560020087307F7007408F6000318F60AA01FA2
:10136600B529F6037608F800780883120313FF0000
:10137600770884000A128A1500200A128A15003A94
:10138600031DC629C72978290800F801F51FCC29AD
:10139600CD29D429F409F509F40A0319F50AF80147
:1013A600F80AF31FD729D829DD29F209F309F20A29
:1013B6000319F30A720873040319E229E329122AAE
:1013C600F701F70AF12901300310F20DF30DFF3E84
:1013D600031DE7290130F6007608F707F31FF42905
:1013E600F529E62973087502031DFB2972087402A4
:1013F600031CFE29FF29052A7208F4027308031C40
:10140600F503F50201300310F30CF20CFF3E031D49
:10141600062A0130F702031D112A122AF529780837
:101426000319162A172A1C2AF409F509F40A0319BE
:10143600F50A7508F3007408F20008008312031316
:10144600AC006430F2000030F3002C08A400A501C3
:101456002408F4002508F5000A128A15E8220A1263
:101466008A15720883120313A6002608AB002B0800
:10147600303EA4002408A7009C30A4002408F200F3
:101486002B080A168A11EB270A128A1583120313F0
:101496002C07A5002508AC000A30F2000030F30046
:1014A6002C08A400A5012408F4002508F5000A125A
:1014B6008A15E8220A128A157208303E831203132F
:1014C600A6002608A8000A30F2000030F3002C0817
:1014D600A400A5012408F4002508F5000A128A15BF
:1014E600C8210A128A157208303E83120313A60019
:1014F6002608A900AA01273008000030831203132A
:10150600A4000030A3000030A2000030A10075083E
:101516007404730472040319912A922ADF2AA5011E
:10152600A50AA22A0130A0000310F20DF30DF40D56
:10153600F50DA00B972A0130A0002008A507F51F7E
:10154600A52AA62A952A0130A0000310A10DA20DF6
:10155600A30DA40DA00BA82A75087902031DBD2AA8
:1015660074087802031DBD2A73087702031DBD2A7D
:1015760072087602031CC02AC12AD02A7208F60213
:101586007308031C730FF7027408031C740FF80228
:101596007508031C750FF902211401300310F50CB0
:1015A600F40CF30CF20CFF3E031DD12A0130A50208
:1015B600031DDE2ADF2AA62A2408F5002308F400E4
:1015C6002208F3002108F200080083120313A10188
:1015D600F31FEE2AEF2AF62AF209F309F20A031993
:1015E600F30AA101A10AF51FF92AFA2A032BF40925
:1015F600F509F40A0319F50A0130F6007608A10682
:10160600A201A3017208730403190A2B0B2B422BA8
:10161600A001A00A192B01300310F20DF30DFF3EB5
:10162600031D0F2B0130F6007608A007F31F1C2BB5
:101636001D2B0E2B01300310A20DA30DFF3E031D23
:101646001E2B73087502031D2A2B72087402031CD5
:101656002D2B2E2B352B7208F4027308031CF50371
:10166600F502221401300310F30CF20CFF3E031DA9
:10167600362B0130A002031D412B422B1D2B2108C6
:101686000319462B472B4C2BA209A309A20A0319BF
:10169600A30A2308F3002208F200080083120313AA
:1016A6002A08031D572B582B852B2608AB00270825
:1016B600AC002808AD002908AE0006300310AB0DBB
:1016C600AC0DAD0DAE0DFF3E031D612B2E08F500D2
:1016D6002D08F4002C08F3002B08F2000030F90066
:1016E6003D30F8000930F7000030F6000A128A157E
:1016F60080220A128A157208FF3E83160313990088
:101706001811B12B2608AB002708AC002808AD003D
:101716002908AE0004300310AB0DAC0DAD0DAE0DB7
:10172600FF3E031D8E2B2E08F5002D08F4002C0815
:10173600F3002B08F2000030F9003D30F8000930C4
:10174600F7000030F6000A128A1580220A128A155E
:101756007208FF3E8316031399001815181398167E
:1017660018128312031398171813181618119810C5
:10177600831603138717071308000310740D750DDE
:1017860083120313A0002008F7007708031DCC2B53
:10179600CD2BD62B0030F5000030F4000030F300DE
:1017A6000030F2003B2C7208A0007308A1007408F8
:1017B600A2007508A3001F300310A30CA20CA10CF5
:1017C600A00CFF3E031DDF2B2008A4002408F60012
:1017D600F417FF30F205FF30F305FF30F405003053
:1017E600F5059630F702F71FF92BFA2B142C77081C
:1017F600803A973E0318002C012C022CCD2B013089
:101806000310F50CF40CF30CF20CFF3E031D032C35
:101816000130A0002008F707031D122C132C022C00
:101826002B2C20307702031C192C1A2C262CCD2B9E
:101836000130A0000310F20DF30DF40DF50DA00B11
:101846001D2C0130F7027708031D2A2C2B2C1B2C8C
:10185600760803192F2C302C3B2CF209F309F409D6
:10186600F509F20A0319F30A0319F40A0319F50A2A
:10187600080083120313A00020080319432C442CEC
:10188600582CF51F472C482C582C7209A2007309B6
:10189600A3007409A4007509A500A20A0319A30AE6
:1018A6000319A40A0319A50A602C7508A500740873
:1018B600A4007308A3007208A200750874047304D8
:1018C6007204031D672C682C712C0030F500003063
:1018D600F4000030F3000030F200F72C9630F600EA
:1018E6007608A100832C0130F6007608A1070130A6
:1018F6000310A50CA40CA30CA20CFF3E031D7B2C0D
:10190600FE302505031D882C892C762CA52C01304C
:10191600F6007608A1070130A2070030031801304F
:10192600A307003003180130A40700300318013064
:10193600A50701300310A50CA40CA30CA20CFF3EB6
:10194600031D9D2CFF302505031DAA2CAB2C8A2CCC
:10195600B72C0130A1020130F6000310A20DA30D31
:10196600A40DA50DF60BB02CA41BBA2CBB2CC12CB8
:10197600023021020318C02CC12CAC2C2118C42C17
:10198600C52CCD2CFF30A205FF30A3057F30A40562
:10199600FF30A5050310A10C2108F600F701F80198
:1019A600F90118300310F60DF70DF80DF90DFF3E8D
:1019B600031DD52C7608A2047708A3047808A4048E
:1019C6007908A50420080319E92CEA2CEF2CF51F49
:1019D600ED2CEE2CEF2CA5172508F5002408F400B5
:1019E6002308F3002208F200080083120313C40040
:1019F6004230A9004C30A8000030A7000030A600F5
:101A06004408C000C101C201C3014308F5004208F1
:101A1600F4004108F3004008F20001300A128A156A
:101A26003C240A128A15750883120313AD00740844
:101A3600AC007308AB007208AA000A128A110426C9
:101A46000A128A15831203132908CE002808CD002E
:101A56002708CC002608CB004E08F5004D08F400F8
:101A66004C08F3004B08F2000A128A15C0230A122A
:101A76008A15720883120313C0004008CA004A0878
:101A8600303EC0004008C5002E30C0004008C600E9
:101A96004A08C000C101C201C3014308F50042085B
:101AA600F4004108F3004008F20001300A128A15DA
:101AB6003C240A128A15750883120313AF007408B2
:101AC600AE007308AD007208AC004E08B3004D08B6
:101AD600B2004C08B1004B08B0000A128A159920D2
:101AE6000A128A15831203132F08CE002E08CD0082
:101AF6002D08CC002C08CB004130A8002030A700D0
:101B06000030A6000030A5004E08AC004D08AB0022
:101B16004C08AA004B08A9000A128A111B200A12B7
:101B26008A15831203132808CE002708CD0026083D
:101B3600CC002508CB004E08F5004D08F4004C08F3
:101B4600F3004B08F2000A128A15C0230A128A15FE
:101B5600720883120313C0004008CA004A08303EC8
:101B6600C0004008C7004A08C000C101C201C30145
:101B76004308F5004208F4004108F3004008F2006B
:101B860001300A128A153C240A128A157508831236
:101B96000313AF007408AE007308AD007208AC0002
:101BA6004E08B3004D08B2004C08B1004B08B00017
:101BB6000A128A1599200A128A15831203132F080E
:101BC600CE002E08CD002D08CC002C08CB004130CD
:101BD600A8002030A7000030A6000030A5004E085F
:101BE600AC004D08AB004C08AA004B08A9000A122D
:101BF6008A111B200A128A15831203132808CE00A5
:101C06002708CD002608CC002508CB004E08F50095
:101C16004D08F4004C08F3004B08F2000A128A152E
:101C2600C0230A128A15720883120313C0004008E3
:101C3600CA004A08303EC0004008C800C901453005
:101C460008000A128A155E200A128A15F201F301AB
:101C5600F40120300A128A1548200A128A154130EA
:101C660083120313D000ED30CF00CF0B382ED00BEC
:101C7600382E3D2E003083120313A9000030A80031
:101C86002530A7008030A600AA01AA0A0A128A15E2
:101C960051230A128A150A128A15E6200A128A1593
:101CA6000A128A153B200A128A1541308312031341
:101CB600D000ED30CF00CF0B5E2ED00B5E2E632E04
:101CC600F501F50A01300A128A1575200A128A15DD
:101CD6002030F5008030F6000A128A152B210A12F0
:101CE6008A15083083120313CF004F08F500013020
:101CF6000A128A1575200A128A152330F5008030DB
:101D0600F6000A128A152B210A128A150F30831241
:101D16000313CF004F08F50001300A128A1575200B
:101D26000A128A152630F5008030F6000A128A1546
:101D36002B210A128A1583120313051006080A16A8
:101D46008A11B4270A128A150A168A11C1270A129D
:101D56008A1583120313CF004F08D4004130831233
:101D66000313D000ED30CF00CF0BB72ED00BB72E1C
:101D7600BC2E8312031354080A128A15F8240A1279
:101D86008A1583120313CF004F08FB00F501F50AED
:101D960002300A128A1575200A128A157B08F50088
:101DA6000030F6000A128A152B210A128A151830FD
:101DB600F3008030F400063083120313CF004F087F
:101DC600F5000A128A1571210A128A157B08F3009A
:101DD6000030F400063083120313CF004F08F500DD
:101DE6000A128A1571210A128A151D30F3008030F5
:101DF600F400063083120313CF004F08F5000A12D1
:101E06008A1571210A128A1583120313051482306A
:101E160083120313D000DD30CF00CF0B102FD00B71
:101E2600102F83120313851006080A168A11B42789
:101E36000A128A150A168A11C1270A128A158312EE
:101E46000313CF004F08D300413083120313D00091
:101E5600ED30CF00CF0B2D2FD00B2D2F322F83122D
:101E6600031353080A128A1521220A128A158312AD
:101E76000313CF004F08FA000830CF004F08F500D3
:101E860002300A128A1575200A128A157A08F50098
:101E96000030F6000A128A152B210A128A150E3016
:101EA600F3008030F400093083120313CF004F088B
:101EB600F5000A128A1571210A128A157A08F300AA
:101EC6000030F400063083120313CF004F08F500EC
:101ED6000A128A1571210A128A151B30F300803006
:101EE600F400063083120313CF004F08F5000A12E0
:101EF6008A1571210A128A158312031385148230FA
:101F060083120313D000DD30CF00CF0B882FD00B08
:101F1600882F83120313051106080A168A11B4279F
:101F26000A128A150A168A11C1270A128A158312FD
:101F36000313CF004F08D200413083120313D000A1
:101F4600ED30CF00CF0BA52FD00BA52FAA2F8312D4
:101F5600031352080A128A1521220A128A158312BD
:101F66000313CF004F08D1000E30CF004F08F50005
:101F760002300A128A1575200A128A158312031373
:101F86005108F5000030F6000A128A152B210A12B4
:101F96008A150130F3008030F4000D3083120313EC
:101FA600CF004F08F5000A128A1571210A128A1508
:101FB600831203135108F3000030F4000630CF00FB
:101FC6004F08F5000A128A1571210A128A151B306C
:101FD600F3008030F400063083120313CF004F085D
:101FE600F5000A128A1571210A128A158312031343
:0A1FF60005159E2E0A128A110C2810
:102F5C00F20072088312031388000800F200720852
:102F6C00831203139300080071088A00700E83000B
:102F7C00FE0E7E0E09000A128A11F9270A168A1112
:102F8C008312031313080800F20083160313981C12
:102F9C00D02FD12FCB2F7208831203139900080066
:102FAC00F40083120313071474080A168A11AE274F
:102FBC000A168A118312031387140330F300F30BE0
:102FCC00E52F8312031387100800F500F401751C1C
:102FDC00F02FF12FF52F7208F3007308F40703108C
:102FEC00F20D0310F50C7508031DFD2FFE2FED2FB0
:042FFC00740808004D
:04400E00D420FF3F7C
:00000001FF
