:020000040000FA
:060000000A128A110C280F
:10000800FE00030EF0000A08F1000A128A116728A0
:100018000A128A110F2883010A128A1113280A1258
:100028008A1146200A128A11F201F301F4012030E4
:100038000A128A1130200A128A1183120313071137
:100048000A128A1157200A128A1183120313880090
:1000580021280A128A110C28F50083160313871227
:10006800751D372838283C287408940087154028BF
:1000780072087404940087117508730483120313BB
:1000880094000800831603138501870186018801FF
:10009800871287118516831203139416850186012A
:1000A8008701880108000A128A1160200A128A1141
:1000B800831203131308080083160313141C6528FE
:1000C80066286028080071088A00700E8300FE0EFA
:0400D8007E0E09008F
:04400E00D420FF3F7C
:00000001FF
