:020000040000FA
:060000000A128A110E280D
:10000800FE00030EF6000408F7000A08F8000A12BA
:100018008A11B8280A128A11112883133030FD007A
:100028000130FE00C130FF00203084000A128A111E
:10003800B2210A128A11B001F901FA01FB01FC018F
:10004800FD0183010A128A113F2983120313B100AB
:100058003108031D3028312835289F121F129F119F
:100068001F113103031D39283A283E289F121F12F9
:100078009F111F1502303106031D432844284828C4
:100088009F121F129F151F1103303106031D4D28A3
:100098004E2852289F121F129F151F150430310633
:1000A800031D572858285C289F121F169F111F11DF
:1000B80005303106031D6128622866289F121F1625
:1000C8009F111F1506303106031D6B286C287028F8
:1000D8009F121F169F151F1107303106031D752823
:1000E80076287A289F121F169F151F15083031068B
:1000F800031D7F28802884289F161F129F111F1117
:1001080009303106031D89288A288E289F161F1258
:100118009F111F150A303106031D9328942898282B
:100128009F161F129F151F110B303106031D9D28A6
:100138009E28A2289F161F129F151F150C303106E6
:10014800031DA728A828AC289F161F169F111F114A
:100158000D303106031DB128B228B6289F161F1688
:100168009F111F159F140800831203130C1FBD282D
:10017800BE28C4281E08F5007508FD000C139F143E
:100188000B1CC728C828F3280B10861CCC28CD28A0
:10019800DC280130F5007508FB0702307B02031CE0
:1001A800D628D728DC28FB01013085020130B002AF
:1001B800061CDF28E028F3280130F5007508FC0745
:1001C80002307C02031CE928EA28F328FC010130EC
:1001D800F500750885070130F5007508B0070B1D97
:1001E800F628F72836290B113D30810087017D0854
:1001F8000A128A11DC210A128A11F5007508FA0020
:100208007D080A128A1181210A128A11F5007508DF
:10021800F9000230831203130806031D1429152957
:10022800162988010808031D1A291B2929290130C4
:10023800F5007508880779080A128A11E4210A125C
:100248008A1183120313870036290808F5007507F9
:1002580088007A080A128A11E4210A128A11831284
:100268000313870078088A0077088400760E8300D5
:10027800FE0E7E0E09000A128A1163210A128A11E3
:100288000A128A11D1210A128A110A128A11992195
:100298000A128A1105300A128A1129200A128A11B3
:1002A8008312031330087D06031D5B295C295E2930
:1002B80089145429891054290A128A110E28831680
:1002C8000317880189018816831603138501FF30F7
:1002D8008600870188010914891083120313850198
:1002E8008601870188018901831603131614961461
:1002F8008B158B170B170B100800F2007208F00013
:100308007008F4007408F00004300310F00CFF3E8D
:10031800031D89297008F1007108F40074080F3969
:10032800F0007008F30073080800831203131F1706
:100338009F13831603131F129F129F138312031315
:100348000C13831603130C178B170B178312031345
:100358001F1408007E088A007F0882000A128A118A
:10036800AE210A128A118000840A04087D06031946
:100378000034FF0A0319FE0AB229773441343B34AA
:100388006B344D346E347E3443347F346F345F3491
:100398007C34363479343E341E3486308316031365
:1003A80081003D30831203138100A0308B000800C8
:1003B800F10071080F39F0007008F20072080800A7
:0E03C800F0007008203E840083130008080037
:04400E00D420FF3F7C
:00000001FF
