:020000040000FA
:060000000A128A110C280F
:10000800FE00030EF1000A08F2000A128A11CE2837
:100018000A128A110F2883133030FD000130FE00C8
:100028003930FF00203084000A128A112A210A126E
:100038008A11F401F50183010A128A11FE28F300DE
:100048007308031D282829282F28831203139F12B9
:100058001F129F111F117303031D332834283A28D8
:10006800831203139F121F129F111F15023073066C
:10007800031D3F2840284628831203139F121F128E
:100088009F151F1103307306031D4B284C28522857
:10009800831203139F121F129F151F150430730636
:1000A800031D572858285E28831203139F121F1612
:1000B8009F111F1105307306031D632864286A28E1
:1000C800831203139F121F169F111F150630730604
:1000D800031D6F2870287628831203139F121F169A
:1000E8009F151F1107307306031D7B287C28822863
:1000F800831203139F121F169F151F1508307306CE
:10010800031D872888288E28831203139F161F1221
:100118009F111F1109307306031D932894289A28EC
:10012800831203139F161F129F111F150A3073069F
:10013800031D9F28A028A628831203139F161F12A9
:100148009F151F110B307306031DAB28AC28B2286E
:10015800831203139F161F129F151F150C30730669
:10016800031DB728B828BE28831203139F161F162D
:100178009F111F110D307306031DC328C428CA28F8
:10018800831203139F161F169F111F158312031343
:100198009F140800831203130C1FD328D428DC28CB
:1001A8001E08F0007008F500750888000C139F14ED
:1001B8008B1DDF28E028E228F401F40A72088A007F
:1001C800710E8300FE0E7E0E0900831203131F17A3
:1001D8009F13831603131F129F129F138312031377
:1001E8000C13831603130C178B170B1783120313A7
:1001F8001F1408000A128A1112210A128A110A12FF
:100208008A11E9200A128A1105300A128A1123205C
:100218000A128A110E290A128A110C28831603174A
:1002280088018901091683160313850101308600A8
:100238008701880109148312031385018601870148
:10024800880108007E088A007F0882000A128A1145
:1002580026210A128A118000840A04087D060319DF
:100268000034FF0A0319FE0A2A29773441343B3443
:100278006B344D346E347E3443347F346F346F3492
:0A0288006F346F346F346F346F343D
:04400E00D420FF3F7C
:00000001FF
