:020000040000FA
:060000000A128A110E280D
:10000800FE00030EF2000408F3000A08F4000A16C2
:100018008A11132B0A128A11112883120313EE0175
:100028008313A0308400CF300A168A11DA210A120D
:100038008A1183010A168A112D2E8312031331089F
:100048008039B6003608BB003108B6003607B7005D
:100058003708C100B01F312832283328411441081D
:100068000319372838284728410A031D3C283D280A
:1000780045280030B1000030B0000030AF0000303B
:10008800AE00B0174F280030B1000030B00000308B
:10009800AF000030AE0035088039B6003608BB0620
:1000A8003508B6003607B7003708C000B41F5D280A
:1000B8005E285F28401440080319632864287328C1
:1000C800400A031D6828692871280030B5000030EF
:1000D800B4000030B3000030B200B4177B28003001
:1000E800B5000030B4000030B3000030B200400862
:1000F80003197F28802885284108031D842885281E
:100108008E280030B1000030B0000030AF00003061
:10011800AE00812B2E08B6003608F60034080A1601
:100128008A11BC220A128A11770883120313C700A6
:100138007608C6004608B600B701B801B901390803
:10014800BF003808BE003708BD003608BC004708A5
:10015800B600B701B801B9013908C5003808C400AC
:100168003708C3003608C2002F08B6003608F60064
:1001780033080A168A11BC220A128A1177088312D8
:100188000313C7007608C6004608B600B701B801D1
:10019800B9013608BC07370803110318013E0319D3
:1001A800D628BD07380803110318013E0319DD28B6
:1001B800BE07390803110318013E0319E428BF07D5
:1001C8004708B600B701B801B9013608C2073708B1
:1001D80003110318013E0319F228C3073808031155
:1001E8000318013E0319F928C40739080311031835
:1001F800013E03190029C5073008B6003608F60085
:1002080032080A168A11BC220A128A117708831248
:100218000313C7007608C6004608B600B701B80140
:10022800B9013608BC07370803110318013E031942
:100238001E29BD07380803110318013E0319252993
:10024800BE07390803110318013E03192C29BF07FB
:100258004708B600B701B801B9013608C207370820
:1002680003110318013E03193A29C307380803117B
:100278000318013E03194129C4073908031103185B
:10028800013E03194829C5070830B6000310BC0D04
:10029800BD0DBE0DBF0DB60B4A292F08B600360896
:1002A800F60032080A168A11BC220A128A11770847
:1002B80083120313C7007608C6004608B60047082D
:1002C800B700B801B9013608BC073708031103188D
:1002D800013E03197029BD07380803110318013EB0
:1002E80003197729BE07390803110318013E0319BA
:1002F8007E29BF072E08B6003608F60033080A160E
:100308008A11BC220A128A11770883120313C700C4
:100318007608C6004608B6004708B700B801B90114
:100328003608BC07370803110318013E03199D2935
:10033800BD07380803110318013E0319A429BE0795
:10034800390803110318013E0319AB29BF07083008
:10035800B6000310BC0DBD0DBE0DBF0DB60BAD290B
:100368002E08B6003608F60032080A168A11BC2292
:100378000A128A11770883120313C7007608C60089
:100388004608B6004708B700B801B9013608BC07E7
:10039800370803110318013E0319D329BD0738088C
:1003A80003110318013E0319DA29BE07390803119E
:1003B8000318013E0319E129BF072F08B6003608C4
:1003C800F60034080A168A11BC220A128A11770824
:1003D80083120313C7007608C6004608B60047080C
:1003E800B700B801B9013608C20737080311031866
:1003F800013E0319002AC307380803110318013EF8
:100408000319072AC407390803110318013E031901
:100418000E2AC5073008B6003608F60033080A1653
:100428008A11BC220A128A11770883120313C700A3
:100438007608C6004608B6004708B700B801B901F3
:100448003608C207370803110318013E03192D2A7D
:10045800C307380803110318013E0319342AC407D7
:10046800390803110318013E03193B2AC507300850
:10047800B6003608F60034080A168A11BC220A1299
:100488008A11770883120313C7007608C600460846
:10049800B6004708B700B801B90108300310B60D17
:1004A800B70DB80DB90DFF3E031D522A3608C20715
:1004B800370803110318013E0319632AC3073808D4
:1004C80003110318013E03196A2AC40739080311E6
:1004D8000318013E0319712AC5073C08B6003D08F8
:1004E800B7003E08B8003F08B90018300310B90C2F
:1004F800B80CB70CB60CFF3E031D7A2A3608C207A3
:10050800370803110318013E03198B2AC30738085B
:1005180003110318013E0319922AC407390803116D
:100528000318013E0319992AC5070830B6000310BD
:10053800BC0DBD0DBE0DBF0DB60B9B2A4108400773
:10054800B600B701B70D3608823EC6003708031853
:10055800013EFF3EC700CD2A0130B6000310C20D90
:10056800C30DC40DC50DB60BB22ABF1FBC2ABD2AC8
:10057800BE2A42140130B6000310BC0DBD0DBE0DDD
:10058800BF0DB60BC02AFF30C6070318C70AFF30D5
:10059800C707C41FD02AD12AB02AC001BF1FD52A35
:1005A800D62AF22AFF303C05B600FF303D05B700D9
:1005B800FF303E05B8007F303F05B90039083804E0
:1005C800370436040319E92AEA2AED2AC001C00AC9
:1005D800F22A421CF02AF12AF22AEA2A40080319D0
:1005E800F62AF72A282B0130C207003003180130F9
:1005F800C307003003180130C40700300318013066
:10060800C507451C082B092B282B4208B6004308B0
:10061800B7004408B8004508B9000130BA00390DE0
:10062800B90CB80CB70CB60CBA0B132B3908C500AB
:100638003808C4003708C3003608C2000130C607AE
:100648000318C70A0030C7074708803AFF00803000
:100658007F02031D312BFF304602031C342B352B40
:10066800402B7F3083120313C5008030C400003054
:10067800C3000030C200752B831203134708803A69
:10068800FF0080307F02031D4B2B01304602031808
:100698004E2B4F2B5B2B003083120313C500003009
:1006A800C4000030C3000030C200BB01752B8312A8
:1006B80003134608B6003608C100FF30C205FF30F4
:1006C800C3057F30C4050030C505411C6C2B6D2B5C
:1006D8006E2BC4174108B6000310360CB700370854
:1006E800C5003B08B6003608C5044508B1004408F3
:1006F800B0004308AF004208AE0008008316031399
:10070800ED00D0300A168A1161220A128A11831666
:100718000313111B902B912B8B2B3B300A168A113C
:1007280051220A128A1183160313111B9C2B9D2B2D
:10073800972B0A168A11F4210A128A11D1300A1647
:100748008A1151220A128A1183160313EB01EC0154
:1007580000300A168A11E5220A128A11831203133D
:10076800DC00831603136B08CF3E84008312031347
:100778005C0883138000013083160313EB0703180A
:10078800EC0A0030EC076C08803AFF0080307F02EA
:10079800031DD02B0D306B02031CD32BD42BAC2B99
:1007A80001300A168A11E5220A128A1183120313EC
:1007B800DC005C0883160313DC000A168A11EB219F
:1007C8000A128A1183160313500883120313DC00DC
:1007D800DD01831603134F0883120313DE00DF01C4
:1007E8005E08DF00DE015C085E0483160313DD008B
:1007F800831203135D085F0483160313DE00520897
:1008080083120313DC00DD018316031351088312DE
:100818000313DE00DF015E08DF00DE015C085E0412
:1008280083160313DF00831203135D085F04831626
:100838000313E000540883120313DC00DD01831660
:100848000313530883120313DE00DF015E08DF0081
:10085800DE015C085E0483160313E10083120313B0
:100868005D085F0483160313E2005608831203131E
:10087800DC00DD0183160313550883120313DE0021
:10088800DF015E08DF00DE015C085E0483160313E7
:10089800E300831203135D085F0483160313E40067
:1008A800580883120313DC00DD018316031357086D
:1008B80083120313DE00DF015E08DF00DE015C083F
:1008C8005E0483160313E500831203135D085F04B7
:1008D80083160313E6005A0883120313DC00DD01B4
:1008E80083160313590883120313DE00DF015E0821
:1008F800DF00DE015C085E0483160313E700831241
:1009080003135D085F0483160313E8005C08831271
:100918000313DC00DD01831603135B088312031342
:10092800DE00DF015E08DF00DE015C085E0483167E
:100938000313E900831203135D085F04831603138E
:10094800EA003A3083120313B1001C30B000D030F3
:10095800AF008630AE00831603135D0883120313BD
:10096800A000831603135E0883120313A10000304E
:10097800A11BFF30A200A30001300A168A117125BD
:100988000A128A11831203132308B5002208B4003F
:100998002108B3002008B2000A128A1121200A1285
:1009A8008A11831603136D088400831203132E081B
:1009B80083138000840A2F088000840A300880008E
:1009C800840A310880003A30B1001C30B000D030C1
:1009D800AF008630AE00831603135F08831203133B
:1009E800A00083160313600883120313A1000030CC
:1009F800A11BFF30A200A30001300A168A1171253D
:100A08000A128A11831203132308B5002208B400BE
:100A18002108B3002008B2000A128A1121200A1204
:100A28008A11831603136D08043E8400831203138E
:100A38002E0883138000840A2F088000840A300857
:100A48008000840A310880003A30B1001C30B000C0
:100A5800D030AF008630AE008316031361088312CE
:100A68000313A00083160313620883120313A10063
:100A78000030A11BFF30A200A30001300A168A1122
:100A880071250A128A11831203132308B50022085C
:100A9800B4002108B3002008B2000A128A112120EC
:100AA8000A128A11831603136D08083E8400831204
:100AB80003132E0883138000840A2F088000840AF9
:100AC80030088000840A310880004230CB001230A0
:100AD800CA001E30C900B830C8004330B100AA307F
:100AE800B0000030AF000030AE0083160313630877
:100AF80083120313A00083160313640883120313DD
:100B0800A1000030A11BFF30A200A30001300A168B
:100B18008A1171250A128A11831203132308B5005A
:100B28002208B4002108B3002008B2000A128A156E
:100B38004F210A128A11831203133108CF0030089B
:100B4800CE002F08CD002E08CC000A128A15782571
:100B58000A128A11831603136D080C3E840083124F
:100B68000313480883138000840A49088000840A14
:100B78004A088000840A4B0880003B30B100FA30F4
:100B8800B0000530AF001430AE00831603136508BB
:100B980083120313A000831603136608831203133A
:100BA800A1000030A11BFF30A200A30001300A16EB
:100BB8008A1171250A128A11831203132308B500BA
:100BC8002208B4002108B3002008B2000A128A11D2
:100BD80021200A128A11831603136D08103E84001F
:100BE800831203132E0883138000840A2F088000C1
:100BF800840A30088000840A310880003B30B10044
:100C0800FA30B0000530AF001430AE00831603137D
:100C1800670883120313A00083160313680883125E
:100C28000313A1000030A11BFF30A200A300013074
:100C38000A168A1171250A128A11831203132308CE
:100C4800B5002208B4002108B3002008B2000A1237
:100C58008A1121200A128A11831603136D08143E83
:100C68008400831203132E0883138000840A2F083C
:100C78008000840A30088000840A310880003B30F4
:100C8800B100FA30B0000530AF001430AE00831662
:100C98000313690883120313A000831603136A0859
:100CA80083120313A1000030A11BFF30A200A30090
:100CB80001300A168A1171250A128A118312031348
:100CC8002308B5002208B4002108B3002008B200A8
:100CD8000A128A1121200A128A11831603136D0839
:100CE800183E8400831203132E0883138000840A9D
:100CF8002F088000840A30088000840A31088000A8
:100D08000800BE3083120313EA006A08831603132F
:100D1800D700831203136708A3006608A2006508BA
:100D2800A1006408A0000030A7000030A600003031
:100D3800A5000030A4000A168A11CD240A128A11CF
:100D48000318A72EA82ED42E2D3083120313EA00E1
:100D58008316031357088400831203136A08831346
:100D680080000130EA006A0883160313D70783124C
:100D780003136708A3006608A2006508A1006408B9
:100D8800A0000A168A1135220A128A118312031347
:100D98002308E7002208E6002108E5002008E4000F
:100DA800831203136708CB006608CA006508C900E8
:100DB8006408C8000A128A1514200A128A118312BC
:100DC80003134B0883160313D600831203134A0830
:100DD80083160313D50083120313490883160313DC
:100DE800D40083120313480883160313D30056084C
:100DF80083120313A30083160313550883120313E6
:100E0800A20083160313540883120313A100831648
:100E18000313530883120313A00000300A168A1123
:100E280071250A128A11831203132308DF0022088E
:100E3800DE002108DD002008DC006708E300660802
:100E4800E2006508E1006408E0000A168A117122D0
:100E58000A128A11831203135F08E7005E08E6008E
:100E68005D08E5005C08E4006708B5006608B400A2
:100E78006508B3006408B2004930B1007430B000AE
:100E88002430AF000030AE000A128A1121200A1265
:100E98008A11831203133108CB003008CA002F08C7
:100EA800C9002E08C8000A128A1514200A128A11CD
:100EB800831203134B0883160313D2008312031300
:100EC8004A0883160313D1008312031349088316B3
:100ED8000313D00083120313480883160313CF00AB
:100EE800293083120313EA006A08B6008316031335
:100EF800560883120313BA00831603135508831286
:100F08000313B90083160313540883120313B8009C
:100F180083160313530883120313B70083160313AE
:100F2800520883120313BE00831603135108831259
:100F38000313BD0083160313500883120313BC0068
:100F4800831603134F0883120313BB00831603137E
:100F580057080A128A152C230A128A11BE30080073
:100F6800FF1BBE2F83137F1883170008840A0319F9
:100F7800FF0A080007308A000408840A8207003440
:100F880001340034003400340A34003400340034AE
:100F98006434003400340034E8340334003400345A
:100FA8001034273400340034A0348634013400343B
:100FB800403442340F34003480349634983400344A
:100FC8000034E134F53405340034CA349A343B34FF
:100FD80025346C3475342E34253436342E34363476
:0A0FE8006C347534003420340034FA
:10100400F700F6013A307702031809280A28122853
:1010140030307702031C0F2810281228F601F60A34
:10102400760C08000310831203134A0D4B0DCC00F9
:101034004C08D2005208031D202821282A280030F9
:10104400CB000030CA000030C9000030C8008F282F
:101054004808CC004908CD004A08CE004B08CF0010
:101064001F300310CF0CCE0CCD0CCC0CFF3E031D57
:1010740033284C08D0005008D100CA17FF30C805E7
:10108400FF30C905FF30CA050030CB059630D202C7
:10109400D21F4D284E2868285208803A973E0318DC
:1010A400542855285628212801300310CB0CCA0C8B
:1010B400C90CC80CFF3E031D57280130CC004C0856
:1010C400D207031D6628672856287F28203052023D
:1010D400031C6D286E287A2821280130CC000310C7
:1010E400C80DC90DCA0DCB0DCC0B71280130D2022D
:1010F4005208031D7E287F286F285108031983286E
:1011040084288F28C809C909CA09CB09C80A031940
:10111400C90A0319CA0A0319CB0A08000A168A1154
:10112400E2210A128A15D0300A168A1151220A12B3
:101134008A156B300A168A1151220A128A15013057
:101144000A168A1151220A128A150A168A11EB21EB
:101154000A128A150A168A11E2210A128A15D03057
:101164000A168A1151220A128A1500300A168A11A7
:1011740051220A128A150A168A11EB210A128A15BB
:101184000A168A11E2210A128A15D0300A168A1127
:1011940051220A128A1519300A168A1151220A128A
:1011A4008A1508300A168A1151220A128A150A165B
:1011B4008A11EB210A128A150A168A11E2210A12EF
:1011C4008A15D0300A168A1151220A128A151A3049
:1011D4000A168A1151220A128A1500300A168A1137
:1011E40051220A128A150A168A11EB210A128A154B
:1011F4000A168A11E2210A128A15D0300A168A11B7
:1012040051220A128A151B300A168A1151220A1217
:101214008A1500300A168A1151220A128A150A16F2
:101224008A11EB210A128A150A168A11E2210A127E
:101234008A15D0300A168A1151220A128A151C30D6
:101244000A168A1151220A128A1500300A168A11C6
:1012540051220A128A150A168A11EB210A128A15DA
:101264000A168A11E2210A128A1568300A168A11AE
:1012740051220A128A156C300A168A1151220A1256
:101284008A1500300A168A1151220A128A150A1682
:101294008A11EB210A128A150800831203133508F8
:1012A4008039B6003608BF003508B6003607B700E7
:1012B4003708C600B41F5F2960296129461446080F
:1012C4000319652966297629460A031D6A296B29AB
:1012D40073290030B5000030B4000030B300003092
:1012E400B200B417B5017E290030B5000030B40057
:1012F4000030B3000030B20031088039B60036083F
:10130400BF063108B6003607B7003708C700B01F5C
:101314008C298D298E29471447080319922993296A
:10132400A329470A031D97299829A0290030B10051
:101334000030B0000030AF000030AE00B017B10193
:10134400AB290030B1000030B0000030AF000030F5
:10135400AE00310830042F042E04031DB229B32932
:10136400CC290030B5000030B4000030B3000030A8
:10137400B2008030B4047F30B5043F08B6003608AC
:10138400B5043508B1003408B0003308AF003208A2
:10139400AE002B2B4608031DD029D129DA290030B1
:1013A400B1000030B0000030AF000030AE002B2B95
:1013B4004608B600B7013708B90047083602B80036
:1013C400031CB90338087F3EC00039080318013EE6
:1013D400003EC1003508BE003408BD003308BC001F
:1013E4003208BB000030B5000030B4000030B30058
:1013F4000030B2000030C5000030C4000030C3002B
:101404000030C200C701502A470803190A2A0B2AD0
:101414002B2A0130B6000310BB0DBC0DBD0DBE0D53
:10142400B60B0D2A0130B6000310B20DB30DB40D86
:10143400B50DB60B162AC51F202A212A222A3214DA
:101444000130B6000310C20DC30DC40DC50DB60B9B
:10145400242A31083E02031D392A30083D02031DA7
:10146400392A2F083C02031D392A2E083B02031C8B
:101474003C2A3D2A4C2A45172E08BB022F08031C80
:101484002F0FBC023008031C300FBD023108031CAF
:10149400310FBE020130B6003608C7071A304702C2
:1014A400031C552A562A062A3E083D043C043B04E4
:1014B40003195D2A5E2A7D2A42147D2A0130B60072
:1014C4000310B20DB30DB40DB50DB60B622AC51FD2
:1014D4006C2A6D2A6E2A32140130B6000310C20D34
:1014E400C30DC40DC50DB60B702AFF30C007031819
:1014F400C10AFF30C107B41F802A812A602AC701AC
:10150400C51F852A862AA22AFF304205B600FF306D
:101514004305B700FF304405B8007F304505B900E6
:1015240039083804370436040319992A9A2A9D2A5B
:10153400C701C70AA22A321CA02AA12AA22A9A2ACF
:1015440047080319A62AA72AD82A0130B20700306F
:1015540003180130B307003003180130B40700301A
:1015640003180130B507351CB82AB92AD82A32081D
:10157400B6003308B7003408B8003508B9000130A4
:10158400BA00390DB90CB80CB70CB60CBA0BC32A97
:101594003908B5003808B4003708B3003608B2007B
:1015A4000130C0070318C10A0030C1074108803A5E
:1015B400FF0080307F02031DE12AFF304002031C3C
:1015C400E42AE52AF32AFF3083120313C000003013
:1015D400C1000030B5000030B4000030B30000306A
:1015E400B200831203134108803AFF0080307F0267
:1015F400031DFE2A013040020318012B022B0F2B7E
:1016040083120313C001C1010030B5000030B400DF
:101614000030B3000030B200BF018312031340084E
:10162400B6003608C600461C182B192B1B2BB41702
:101634001F2B7F30B6003608B4054608B6000310E9
:10164400360CB7003708B5003F08B6003608B504B5
:10165400C329080083120313CA003730BF003F08B0
:10166400C500612D25304F060319392B3A2B462B23
:101674004F08BF004A0884003F08831380000130EC
:10168400BF003F08CA07612DCB01CC01C401360855
:1016940084000A128A11BE270A128A150A128A15B0
:1016A40002200A128A15031C582B592B992B8312DA
:1016B4000313CB01CC010A3083120313A0000030C2
:1016C400A1004C08A3004B08A2000A168A11952217
:1016D4000A128A15831203132108CC002008CB00B8
:1016E400360884000A128A11BE270A128A15D03ECF
:1016F400BF00FF3003180030C0003F08CB070318B9
:10170400CC0A4008CC070130BF003F08B6073608B2
:1017140084000A128A11BE270A128A150A128A152F
:1017240002200A128A150318982B992B5D2B831219
:101734000313360884000A128A11BE270A128A1576
:101744002E3A031DA62BA72BEB2B0130BF003F081D
:10175400B607CD01CE01DA2B0A3083120313A000A1
:101764000030A1004E08A3004D08A2000A168A11F9
:1017740095220A128A15831203132108CE00200829
:10178400CD00360884000A128A11BE270A128A156F
:10179400D03EBF00FF3003180030C0003F08CD0723
:1017A4000318CE0A4008CE070130BF003F08B60731
:1017B400360884000A128A11BE270A128A150A12F0
:1017C4008A1502200A128A150318E92BEA2BAE2B7C
:1017D400F52BCD01CE01F52B4416F52BC030BF00FF
:1017E4003F08C404142C013083120313B607FF30DE
:1017F400360784000A128A11BE270A128A15CF00FE
:10180400BF00C0014008003A0319092C612D3F08AC
:10181400003A0319732D6C3A0319EE2B193A031984
:10182400F02B612D441E172C182C2B2C45088400FA
:1018340083130008C600840A0008C700840A00084D
:10184400C800840A0008C9000430BF003F08C50767
:101854003D2C4508840083130008BF00840A000857
:10186400C0003F08C6004008C700C801C9010230D3
:10187400BF003F08C5074D084E04031D422C432CEE
:10188400512C4908480447044604031D4A2C4B2C98
:10189400512C0130CD070318CE0A0030CE07CF01FA
:1018A400CF0A4F08BF0001300310BF0DFF3E031DD8
:1018B400562C03103F0D013E84000A128A11BE27E4
:1018C4000A128A15C0000A128A11BE270A128A1542
:1018D400C1000A128A11BE270A128A15C2000A120E
:1018E4008A11BE270A128A15C30043084902031D40
:1018F400852C42084802031D852C41084702031D1C
:10190400852C400846020318882C892C8A2C942C98
:101914000130BF003F08CF070A304F06031D932C48
:10192400942C532C4E08803A803C031D9B2C4D086C
:101934004F0203189E2C9F2CA62C831203134D08D0
:10194400BF003F08CF00BE2C831203134E08803A19
:10195400BF0080303F02031DB12C4F084D02031815
:10196400B42CB52CBE2C831203134F08BF00C00146
:101974003F08CD004008CE00831203134C08803A80
:10198400803C031DC72C4B084F020318CA2CCB2CD8
:10199400D72C831203134F08BF00C0013F08CB02AA
:1019A4004008031CCC03CC02DB2C83120313CB01B1
:1019B400CC014B084C040319E02CE12C532D2030AE
:1019C400BF004A0884003F08831380000130BF0031
:1019D4003F08CA07FF30CB070318CC0AFF30CC07F7
:1019E4004B084C04031DF72CF82CE12C532D00302C
:1019F400B0000030AF000030AE000A30AD004D083A
:101A0400BF0001300310BF0DFF3E031D042D031062
:101A14003F0D013E84000A128A11BE270A128A155C
:101A2400A0000A128A11BE270A128A15A1000A12FE
:101A34008A11BE270A128A15A2000A128A11BE2729
:101A44000A128A15A3004908A7004808A6004708F7
:101A5400A5004608A4000A168A11F2230A128A1560
:101A6400831203132308B4002208B3002108B20030
:101A74002008B1000A168A1145230A128A15831216
:101A840003132D08303EC0004008CF004F08BF00AC
:101A94004A0884003F08831380000130BF003F08D8
:101AA400CA07FF30CD070318CE0AFF30CE074D0A10
:101AB400031D602D4E0A031D602D612DF92C01308C
:101AC400B607FF30360784000A128A11BE270A12AD
:101AD4008A15BF003F08CF004F08031D722D732DD8
:101AE400342B4A08840083138001080083120313F3
:101AF4004B088039D0005008D8004B08D00050075C
:101B0400D1005108DA00CA1F882D892D8A2D5A1454
:101B14005A0803198E2D8F2D9F2D5A0A031D932DBC
:101B2400942D9C2D0030CB000030CA000030C90039
:101B34000030C800CA17CB01A72D0030CB000030FD
:101B4400CA000030C9000030C8004F088039D000F6
:101B54005008D900590858060319B12DB22DB32DD8
:101B640058174F08D0005007D1005108D900CE1F94
:101B7400BC2DBD2DBE2D591459080319C22DC32DDA
:101B8400D32D590A031DC72DC82DD02D0030CF00E9
:101B94000030CE000030CD000030CC00CE17CF0195
:101BA400DB2D0030CF000030CE000030CD000030FF
:101BB400CC005A0859020318E02DE12D252E581F98
:101BC400E42DE52DE92D8030D0005008D8065A08C0
:101BD400D0005008DB005908D0005008DA005B0838
:101BE400D0005008D9004808D0005008DB004C0849
:101BF400D0005008C8005B08D0005008CC00490849
:101C0400D0005008DB004D08D0005008C9005B0824
:101C1400D0005008CD004A08D0005008DB004E0820
:101C2400D0005008CA005B08D0005008CE004B0812
:101C3400D0005008DB004F08D0005008CB005B08F0
:101C4400D0005008CF00DB015908D000D101510861
:101C5400D3005A085002D200031CD3035308803A1D
:101C6400FF0080307F02031D392E1A305202031CFC
:101C74003C2E3D2E7A2E831203134B084A0449044A
:101C84004804031D462E482E0130492E0030D00052
:101C94005008DB000030CB000030CA000030C9001F
:101CA4000030C8005908D0005008DA00822E5B1CAE
:101CB4005C2E5D2E662E5B08D0000310500C01389C
:101CC400D1005108DB00682E0310DB0C481C6B2E7E
:101CD4006C2E6D2EDB170130D0004B0DCB0CCA0CD3
:101CE400C90CC80CD00B6F2E0130D0005008DA0795
:101CF4008312031359085A02031C812E822E592E73
:101D0400581B852E862ED12E5A08031D8A2E8B2E03
:101D1400942E0030CB000030CA000030C9000030DF
:101D2400C800FF2F4C08C8074D0803110318013ED3
:101D340003199D2EC9074E0803110318013E031908
:101D4400A42ECA074F0803110318013E0319AB2E32
:101D5400CB074B1CAE2EAF2E852F5B1CB22EB32EA1
:101D6400BC2E5B08D0000310500C0138D100510880
:101D7400DB00BE2E0310DB0C481CC12EC22EC32E6A
:101D8400DB170130D0004B0DCB0CCA0CC90CC80CAE
:101D9400D00BC52E0130D0005008DA07852F4B0830
:101DA400803AFF004F08803A7F02031DE32E4E085D
:101DB4004A02031DE32E4D084902031DE32E4C087D
:101DC40048020318E62EE72E3F2FFF30D000FF30E5
:101DD400D100FF30D200FF30D3004C08D4004D08AE
:101DE400D5004E08D6004F08D7004808D402490849
:101DF400031C490FFE2EFF2ED5024A08031C4A0F6E
:101E0400042F052FD6024B08031C4B0F0A2F0B2F50
:101E1400D7025408D00755080318550F122F132F53
:101E2400D10756080318560F182F192FD207570831
:101E34000318570AD3075308CB005208CA005108A5
:101E4400C9005008C8008030D0005008D806DB090B
:101E5400DB0A5B08031D2F2F302F4D2F0130C807DD
:101E6400003003180130C907003003180130CA07D5
:101E7400003003180130CB074D2F4C08C8024D0821
:101E8400031C4D0FC9024E08031C4E0FCA024F0813
:101E9400031C4F0FCB024B084A0449044804031D9A
:101EA400542F552F812F5B08031D592F5A2F812F33
:101EB4000030CB000030CA000030C9000030C80038
:101EC400FF2F0130D0000310C80DC90DCA0DCB0D72
:101ED400D00B652FDB1F6F2F702F712F48145B1CE5
:101EE400742F752F782F0314DB0D7A2F0310DB0D5D
:101EF4005A0803197E2F7F2F812F0130DA02CA1F5F
:101F0400842F852F632FD901DB1F892F8A2F982FC8
:101F14005B087F3903198F2F902F932FD901D90A8A
:101F2400982F481C962F972F982F902F59080319F4
:101F34009C2F9D2FD12F0130C8070030031801308A
:101F4400C907003003180130CA07003003180130F4
:101F5400CB074B1CAE2FAF2FD12F4808D000490818
:101F6400D1004A08D2004B08D3000130D400530DED
:101F7400D30CD20CD10CD00CD40BB92F5308CB00FA
:101F84005208CA005108C9005008C8005A0A031967
:101F9400CC2FCD2FD12F0130D0005008DA075A0AA8
:101FA4000319D52FD62FDB2F5A08031DDA2FDB2F69
:101FB400E92F0030CB000030CA000030C9000030E7
:101FC400C8005A08031DE72FE82FE92FD8015A1C2F
:101FD400EC2FED2FEF2FCA17F32F7F30D0005008CE
:101FE400CA055A08D0000310500CD1005108CB0088
:0C1FF400D81FFD2FFE2FFF2FCB17080079
:1023B40064008001840A0406031900340406DB293E
:1023C4000A168A111B220A168A1183160313111482
:1023D40008000A168A111B220A168A11831603138F
:1023E400111508000A168A111B220A168A1183166F
:1023F4000313911408008316031391121116111A72
:10240400042A052A012A08008316031391161116BB
:10241400111A0D2A0E2A0A2A0800F600831603133D
:10242400981C152A162A102A760883120313990079
:102434000800831603131419202A212A1B2A1108C1
:102444001F39031D262A272A1B2A08002830831235
:10245400031394008316031391019401093093002C
:102464008715071608008312031323082204210486
:10247400200403193E2A3F2A412A8030A30608007B
:10248400831603178801831603138501831203132C
:1024940085018B170B17831603138C160800F6009F
:1024A4000A168A111B220A168A117608831203134C
:1024B40093008C1D5E2A5F2A5B2A8C110800F700AA
:1024C4000A168A111B220A168A1183160313111481
:1024D40077080A168A1151220A168A1108008030D8
:1024E40083120313DF066308CB006208CA00610885
:1024F400C9006008C8005F08CF005E08CE005D0810
:10250400CD005C08CC000A128A1578250A168A11B7
:10251400831203134B08DF004A08DE004908DD007C
:102524004808DC000800F601F70183120313201C9D
:102534009C2A9D2AA32A2208F6070318F70A2308CF
:10254400F70701300310A20DA30DFF3E031DA42ABB
:1025540001300310A10CA00CFF3E031DAB2A200880
:102564002104031DB62AB72A972A7708A100760802
:10257400A000080083120313A600A201A301760899
:10258400A000A1012008A4002108A500261CCB2A34
:10259400CC2AD22A2408A2070318A30A2508A307D1
:1025A40001300310A40DA50DFF3E031DD32A031013
:1025B400A60C2608031DDF2AE02AC82A2308F700F0
:1025C4002208F600080083120313A0000A168A11D9
:1025D4001B220A168A11831603139115141CF32A5D
:1025E400F42AF02A831203131308F6007608A100D4
:1025F4002008031DFE2AFF2A052B0A168A11FD2135
:102604000A168A110A2B0A168A1106220A168A1138
:10261400831203138C1D0F2B102B0A2B8C112108F2
:102624000800831203138C1E182B192B3C2B1A0839
:10263400F0007008F500262B05143C2B05103C2BEC
:1026440085143C2B85103C2B7508F000F1017108B2
:10265400003A03192E2B3C2B7008413A03191E2B08
:10266400033A0319202B013A0319222B073A0319C1
:10267400242B3C2B74088A0073088400720E830098
:10268400FE0E7E0E09008312031330082F042E045D
:102694002D0403194E2B4F2B922BB501B50A5F2B3A
:1026A4000130F7000310AD0DAE0DAF0DB00DF70BFB
:1026B400542B0130F7007708B507B01F622B632B4A
:1026C400522B30083402031D712B2F083302031DD3
:1026D400712B2E083202031D712B2D083102031CAD
:1026E400742B752B832B2D08B1022E08031C2E0F7F
:1026F400B2022F08031C2F0FB3023008031C300F43
:10270400B40201300310B00CAF0CAE0CAD0CFF3EA4
:10271400031D842B0130B502031D912B922B632BD7
:102724003408B0003308AF003208AE003108AD0001
:10273400080083120313A601A701A601A701C62B53
:1027440026082007A4002108A3000318A30AA61F33
:10275400AC2BA303831203132308A5002508FF0051
:10276400240884000A128A11B4270A168A110A1648
:102774008A110F220A168A11013083120313A60745
:102784000318A70A0030A7072708803AA30080305F
:102794002302031DCF2B220826020318D22BD32B8E
:1027A400F12B8312031326082007A4002108A30099
:1027B4000318A30AA61FDF2BA30383120313230802
:1027C400A5002508FF00240884000A128A11B427F2
:1027D4000A168A11003A031DF02BF12BA22B0800D4
:1027E400003083120313AB000030AA000030A900AC
:1027F4000030A80023082204210420040319032C18
:10280400042C512CAC01AC0A142C0130F60003103A
:10281400A00DA10DA20DA30DF60B092C0130F6009D
:102824007608AC07A31F172C182C072C0130F600D0
:102834000310A80DA90DAA0DAB0DF60B1A2C230835
:102844002702031D2F2C22082602031D2F2C2108EA
:102854002502031D2F2C20082402031C322C332CA8
:10286400422C2008A4022108031C210FA5022208DF
:10287400031C220FA6022308031C230FA7022814FB
:1028840001300310A30CA20CA10CA00CFF3E031DED
:10289400432C0130AC02031D502C512C182C2B0856
:1028A400A3002A08A2002908A1002808A000080003
:1028B400831203133108031D602C612C902C2D0806
:1028C400B2002E08B3002F08B4003008B50006305B
:1028D4000310B20DB30DB40DB50DFF3E031D6A2CEC
:1028E4003508A3003408A2003308A1003208A00070
:1028F4000030A7003D30A6000930A5000030A40038
:102904000A168A11F2230A168A1183120313200865
:10291400FF3E8316031399001811BE2C2D08B20034
:102924002E08B3002F08B4003008B500043003109B
:10293400B20DB30DB40DB50DFF3E031D992C350832
:10294400A3003408A2003308A1003208A00000301C
:10295400A7003D30A6000930A5000030A4000A16E7
:102964008A11F2230A168A11831203132008FF3EE8
:102974008316031399001815181398161812831246
:1029840003139817181318161811981083160313A5
:102994008717071308000030831203132005A800CB
:1029A40000302105A90080302205AA007F302305CC
:1029B400AB002B082A0429042804031DE22CE32C71
:1029C400EB2C0030A3000030A2000030A100003046
:1029D400A00000302405A80000302505A90080309F
:1029E4002605AA007F302705AB002B082A042904FA
:1029F4002804031DFE2CFF2C072D0030A7000030F7
:102A0400A6000030A5000030A400A31F0A2D0B2D42
:102A14002F2D0030A8000030A9000030AA0080301B
:102A2400AB002008A8022108031C210F1A2D1B2D1E
:102A3400A9022208031C220F202D212DAA022308FB
:102A4400031C230F262D272DAB022B08A3002A08D5
:102A5400A2002908A1002808A000A71F322D332DA9
:102A6400572D0030A8000030A9000030AA008030A3
:102A7400AB002408A8022508031C250F422D432D72
:102A8400A9022608031C260F482D492DAA0227084F
:102A9400031C270F4E2D4F2DAB022B08A7002A082D
:102AA400A6002908A5002808A4008030A3068030C9
:102AB400A70627082302031D692D26082202031DE9
:102AC400692D25082102031D692D240820020318FD
:102AD4006C2D6D2D6F2D0310702D031408008312BF
:102AE4000313A80028080319782D792D8D2DA31F11
:102AF4007C2D7D2D8D2D2009AA002109AB002209F2
:102B0400AC002309AD00AA0A0319AB0A0319AC0AE5
:102B14000319AD0A952D2308AD002208AC00210845
:102B2400AB002008AA002308220421042004031D6A
:102B34009C2D9D2DA62D0030A3000030A200003056
:102B4400A1000030A0002C2E9630A4002408A90077
:102B5400B82D0130A4002408A90701300310AD0CDE
:102B6400AC0CAB0CAA0CFF3E031DB02DFE302D05A2
:102B7400031DBD2DBE2DAB2DDA2D0130A40024087C
:102B8400A9070130AA07003003180130AB07003051
:102B940003180130AC07003003180130AD070130D1
:102BA4000310AD0CAC0CAB0CAA0CFF3E031DD22DD4
:102BB400FF302D05031DDF2DE02DBF2DEC2D013041
:102BC400A9020130A4000310AA0DAB0DAC0DAD0D8C
:102BD400A40BE52DAC1BEF2DF02DF62D02302902B0
:102BE4000318F52DF62DE12D2918F92DFA2D022EB5
:102BF400FF30AA05FF30AB057F30AC05FF30AD05D3
:102C04000310A90C2908A400A501A601A7011830E6
:102C14000310A40DA50DA60DA70DFF3E031D0A2E3E
:102C24002408AA042508AB042608AC042708AD042C
:102C3400280803191E2E1F2E242EA31F222E232EF6
:102C4400242EAD172D08A3002C08A2002B08A100E8
:102C54002A08A0000800063083120313ED00133085
:102C6400EC00AD30EB00EB0B352EEC0B352EED0B01
:102C7400352E0A168A1142220A168A110A168A1158
:102C840028220A168A11003083120313B000003080
:102C9400AF002530AE008030AD00B101B10A0A1694
:102CA4008A115A240A168A110A128A1590200A16C1
:102CB4008A11A2300A128A1182230A168A118316F3
:102CC4000313250883120313E70083160313240850
:102CD40083120313E60083160313230883120313DA
:102CE400E50083160313220883120313E400003063
:102CF400E8000030E9000A128A1185260A168A11B2
:102D040083120313EB006B08EE006E08A000003082
:102D1400A1000630EB006B08A2000A168A119B235F
:102D24000A168A110430A23E840083130008831219
:102D34000313E400840A0008E500840A0008E6009E
:102D4400840A0008E7000030E8000030E9000A12B5
:102D54008A1185260A168A1183120313EB006B0865
:102D6400EE003430A0008030A1000A30EB006B0884
:102D7400A2000A168A119B230A168A1183120313CE
:102D84006E08A0000030A1000630EB006B08A20022
:102D94000A168A119B230A168A110830A23E84005F
:102DA4008313000883120313E400840A0008E50077
:102DB400840A0008E600840A0008E7000030E800FE
:102DC4000030E9000A128A1185260A168A11831234
:102DD4000313EB006B08EE003430A0008030A10038
:102DE4000A30EB006B08A2000A168A119B230A160C
:102DF4008A11831203136E08A0000030A10006306C
:102E0400EB006B08A2000A168A119B230A168A118A
:102E14000C30A23E84008313000883120313E400E1
:102E2400840A0008E500840A0008E600840A000811
:102E3400E7000030E8000030E9000A128A11852614
:102E44000A168A1183120313EB006B08EE00343068
:102E5400A0008030A1000A30EB006B08A2000A1623
:102E64008A119B230A168A11831203136E08A00089
:102E74000030A1000630EB006B08A2000A168A118C
:102E84009B230A168A111030A23E84008313000883
:102E940083120313E400840A0008E500840A00088E
:102EA400E600840A0008E7000030E8000030E9008A
:102EB4000A128A1185260A168A1183120313EB005B
:102EC4006B08EE003430A0008030A1000A30EB0023
:102ED4006B08A2000A168A119B230A168A11831210
:102EE40003136E08A0000030A1000630EB006B084D
:102EF400A2000A168A119B230A168A111430A23ED4
:102F040084008313000883120313E400840A000876
:102F1400E500840A0008E600840A0008E70000309F
:102F2400E8000030E9000A128A1185260A168A117F
:102F340083120313EB006B08EE003430A0008030E2
:102F4400A1000A30EB006B08A2000A168A119B2329
:102F54000A168A11831203136E08A0000030A10020
:102F64000630EB006B08A2000A168A119B230A168E
:102F74008A111830A23E84008313000883120313BD
:102F8400E400840A0008E500840A0008E600840AD4
:102F94000008E7000030E8000030E9000A128A1156
:102FA40085260A168A1183120313EB006B08EE00C0
:102FB4003430A0008030A1000A30EB006B08A2007E
:102FC4000A168A119B230A168A11831203136E08A8
:102FD400A0000030A1000630EB006B08A2000A1626
:102FE4008A119B230A168A110A300A168A110F22A3
:0C2FF4000A168A115B2E0A128A110E28A0
:04400E00D420FF3F7C
:00000001FF
