:020000040000FA
:060000000A128A110C280F
:10000800FE00030EF0000A08F1000A128A112A29DC
:100018000A128A110F28FB0183010A128A11EB28A0
:10002800831203132908031D1A281B2848282508AA
:10003800AA002608AB002708AC002808AD00063047
:100048000310AA0DAB0DAC0DAD0DFF3E031D24280A
:100058002D08F5002C08F4002B08F3002A08F200FC
:100068000030F9003D30F8000930F7000030F600A4
:100078000A128A1183200A128A117208FF3E831617
:1000880003139900181174282508AA002608AB0044
:100098002708AC002808AD0004300310AA0DAB0DEA
:1000A800AC0DAD0DFF3E031D51282D08F5002C08A1
:1000B800F4002B08F3002A08F2000030F9003D3064
:1000C800F8000930F7000030F6000A128A11832080
:1000D8000A128A117208FF3E831603139900181535
:1000E8001813981618128312031398171813181652
:1000F8001811981083160313871707130800003088
:1001080083120313A3000030A2000030A1000030C6
:10011800A0007508740473047204031994289528C0
:10012800E228A401A40AA5280130FA000310F20D60
:10013800F30DF40DF50DFA0B9A280130FA007A0840
:10014800A407F51FA828A92898280130FA00031049
:10015800A00DA10DA20DA30DFA0BAB28750879020D
:10016800031DC02874087802031DC028730877028D
:10017800031DC02872087602031CC328C428D3288C
:100188007208F6027308031C730FF7027408031C45
:10019800740FF8027508031C750FF902201401305A
:1001A8000310F50CF40CF30CF20CFF3E031DD428DD
:1001B8000130A402031DE128E228A9282308F5003C
:1001C8002208F4002108F3002008F20008000A12AF
:1001D8008A110E210A128A11031083120313051CB7
:1001E80003140318F828FC28831203130514FF28A6
:1001F800831203130510413083120313AF00ED304F
:10020800AE00AE0B0529AF0B05290A29F0280A1202
:100218008A110C28003083120313A8000030A700AD
:100228002530A6008030A500A901A90A0A128A1162
:1002380014200A128A1183160313850183120313EB
:1002480085018316031788018901080071088A004F
:0A025800700E8300FE0E7E0E0900FA
:04400E00D420FF3F7C
:00000001FF
