:020000040000FA
:060000000A128A110C280F
:10000800FE00030EF0000A08F1000A128A11F32A12
:100018000A128A110F28FA01FB0183120313B30194
:10002800B401B501B601B701B801B901BA01BB0104
:10003800BC01BD01BE01BF01C00183010A128A11C2
:1000480025280A128A11DF210A128A11D0300A12D1
:100058008A11A6220A128A111930F2000030F30020
:100068000A128A11E0220A128A110730F2000030BF
:10007800F3000A128A11E0220A128A110A128A115E
:10008800EA220A128A11D0300A128A11A6220A120A
:100098008A116B30F2000030F3000A128A11E02254
:1000A8000A128A110130F2000030F3000A128A1194
:1000B800E0220A128A110A128A11EA220A128A1105
:1000C800D0300A128A11A6220A128A111A30F200B6
:1000D8000030F3000A128A11E0220A128A11003055
:1000E800F200F3000A128A11E0220A128A110A1297
:1000F8008A11EA220A128A11D0300A128A11A6221B
:100108000A128A111C30F2000030F3000A128A1118
:10011800E0220A128A110030F200F3000A128A1152
:10012800E0220A128A110A128A11EA220A128A1194
:10013800D0300A128A11A6220A128A111B30F20044
:100148000030F3000A128A11E0220A128A111830CC
:10015800F2000030F3000A128A11E0220A128A1112
:100168000A128A11EA220A128A110310831203134F
:10017800051C03140318C128C5288312031305148A
:10018800C828831203130510413083120313B200E9
:10019800ED30B100B10BCE28B20BCE28D328D03029
:1001A8000A128A11A6220A128A113B30F200003084
:1001B800F3000A128A11E0220A128A110A128A111D
:1001C800EA220A128A11D1300A128A11A6220A12C8
:1001D8008A110030F200F3000A128A1153220A121F
:1001E8008A117308FB007208FA000A128A11EA22BF
:1001F8000A128A1101300A128A1181220A128A11FE
:10020800B9280A128A110C28831203132A08031D1D
:100218000E290F293C292608AB002708AC0028081E
:10022800AD002908AE0006300310AB0DAC0DAD0DC6
:10023800AE0DFF3E031D18292E08F5002D08F40009
:100248002C08F3002B08F2000030F9003D30F800CC
:100258000930F7000030F6000A128A1177210A12D5
:100268008A117208FF3E8316031399001811682932
:100278002608AB002708AC002808AD002908AE0006
:1002880004300310AB0DAC0DAD0DAE0DFF3E031DDC
:1002980045292E08F5002D08F4002C08F3002B083A
:1002A800F2000030F9003D30F8000930F700003066
:1002B800F6000A128A1177210A128A117208FF3E83
:1002C8008316031399001815181398161812831219
:1002D8000313981718131816181198108316031378
:1002E800871707130800003083120313A400003097
:1002F800A3000030A2000030A10075087404730444
:100308007204031988298929D629A501A50A9929DA
:100318000130A0000310F20DF30DF40DF50DA00B44
:100328008E290130A0002008A507F51F9C299D29CA
:100338008C290130A0000310A10DA20DA30DA40D5E
:10034800A00B9F2975087902031DB4297408780247
:10035800031DB42973087702031DB42972087602B5
:10036800031CB729B829C7297208F6027308031CA9
:10037800730FF7027408031C740FF8027508031C46
:10038800750FF902211401300310F50CF40CF30C6D
:10039800F20CFF3E031DC8290130A502031DD52913
:1003A800D6299D292408F5002308F4002208F30023
:1003B8002108F2000800003083120313A90000305E
:1003C800A8002530A7008030A600AA01AA0A0A12B0
:1003D8008A1108210A128A11413083120313B000CE
:1003E800ED30AF00AF0BF629B00BF629FB29003032
:1003F80083120313A9000130A8008630A700A0309B
:10040800A6000A128A111B220A128A1183160313E4
:100418008501831203138501831603138701831251
:100428000313870183160317880189010800283000
:100438008312031394008316031391018312031389
:100448002608AA002708AB002808AC002908AD0038
:1004580002300310AA0DAB0DAC0DAD0DFF3E031D10
:100468002D2A2D08F5002C08F4002B08F3002A0883
:10047800F2000030F9003D30F8000930F700003094
:10048800F6000A128A1177210A128A117208FF3EB1
:1004980083160313930094018715071608000A12A0
:1004A8008A11BC220A128A118316031391150A12A3
:1004B8008A11BC220A128A11831203131308F4004A
:1004C800F5017408F6007508F7000A128A11BC22B3
:1004D8000A128A1172037304031D732A742A782A74
:1004E8008316031391127B2A831603139116111690
:1004F8007708F3007608F2000800F500F301F4012C
:10050800982A7308750784000A128A11D5220A12DC
:100518008A110A128A11C9220A128A110130F307B4
:100528000318F40A0030F4077308750784000A12E8
:100538008A11D5220A128A11003A031DA42AA52A73
:10054800852A0800F6000A128A11BC220A128A11AA
:100558008316031311147608F400F5017408F200E9
:100568007508F3000A128A11E0220A128A1108009B
:10057800831603131419C12AC22ABC2A11081F3969
:10058800031DC72AC82ABC2A0800F20083160313D1
:10059800981CCF2AD02ACA2A7208831203139900FA
:1005A800080002308A000408840A8207003468348C
:1005B8006F346C34613400340A128A11BC220A1276
:1005C8008A11720883120313930008000A128A1111
:1005D800BC220A128A118316031311150800710828
:0C05E8008A00700E8300FE0E7E0E0900DB
:04400E00D420FF3F7C
:00000001FF
