:020000040000FA
:060000000A128A110C280F
:10000800FE00030EF0000A08F1000A128A11472CBC
:100018000A128A110F28F901FA01FB01831203134E
:10002800B501B601B701B801B901BA01BB01BC01FC
:10003800BD01BE01BF01C001C101C20183010A1295
:100048008A1126280A128A1155230A128A110A12BD
:100058008A113E240A128A111930F2000030F30086
:100068000A128A112B240A128A110730F200003072
:10007800F3000A128A112B240A128A110A128A1111
:1000880035240A128A110A128A113E240A128A1188
:100098006B30F2000030F3000A128A112B240A1286
:1000A8008A110130F2000030F3000A128A112B2461
:1000B8000A128A110A128A1135240A128A110A129E
:1000C8008A113E240A128A111A30F2000030F30015
:1000D8000A128A112B240A128A110030F200F30046
:1000E8000A128A112B240A128A110A128A1135243B
:1000F8000A128A110A128A113E240A128A111C3025
:10010800F2000030F3000A128A112B240A128A1115
:100118000030F200F3000A128A112B240A128A1105
:100128000A128A1135240A128A110A128A113E24E7
:100138000A128A111B30F2000030F3000A128A11E9
:100148002B240A128A111830F2000030F3000A1228
:100158008A112B240A128A110A128A1135240A12CA
:100168008A11031083120313051C03140318BD28F6
:10017800C128831203130514C4288312031305101E
:10018800413083120313B400ED30B300B30BCA2817
:10019800B40BCA28CF280A128A113E240A128A11DF
:1001A8003C30F2000030F3000A128A112B240A12A4
:1001B8008A110A128A1135240A128A110A128A111E
:1001C8003E240A128A11D130F2000030F3000A12DC
:1001D8008A112B240A128A113B30F2000030F300F6
:1001E8000A128A112B240A128A110030F200F30035
:1001F8000A128A11BA230A128A1173088312031386
:10020800C2007208C10041080A128A1163220A1248
:100218008A1183120313BF000030C0003F08F300A7
:100228004008F4000A128A118A230A128A11B52892
:100238000A128A110C28831203132C08031D25297E
:10024800262955292808AD002908AE002A08AF003C
:100258002B08B00006300310AD0DAE0DAF0DB00D7C
:10026800FF3E031D2F293008A3002F08A2002E08E7
:10027800A1002D08A0000030A7003D30A6000930DD
:10028800A5000030A4000A128A11FB210A128A1163
:10029800831203132008FF3E8316031399001811D5
:1002A80083292808AD002908AE002A08AF002B08CA
:1002B800B00004300310AD0DAE0DAF0DB00DFF3E14
:1002C800031D5E293008A3002F08A2002E08A100F4
:1002D8002D08A0000030A7003D30A6000930A50079
:1002E8000030A4000A128A11FB210A128A11831213
:1002F80003132008FF3E83160313990018151813DB
:100308009816181283120313981718131816181131
:100318009810831603138717071308008312031313
:10032800A101F31F98299929A029F209F309F20AD2
:100338000319F30AA101A10AF51FA329A429AD29CC
:10034800F409F509F40A0319F50A0130F6007608EC
:10035800A106A201A301720873040319B429B529DF
:10036800EC29A001A00AC32901300310F20DF30DF6
:10037800FF3E031DB9290130F6007608A007F31FD8
:10038800C629C729B82901300310A20DA30DFF3EC5
:10039800031DC82973087502031DD4297208740245
:1003A800031CD729D829DF297208F4027308031C13
:1003B800F503F502221401300310F30CF20CFF3E92
:1003C800031DE0290130A002031DEB29EC29C729F0
:1003D80021080319F029F129F629A209A309A20A7B
:1003E8000319A30A2308F3002208F20008000030CA
:1003F800F6000030F5000030F4000030F3008312FE
:100408000313230822042104200403190C2A0D2AAB
:100418005A2AF701F70A1D2A0130F2000310A00D2D
:10042800A10DA20DA30DF20B122A0130F2007208E1
:10043800F707A31F202A212A102A0130F2000310EF
:10044800F30DF40DF50DF60DF20B232A2308270200
:10045800031D382A22082602031D382A21082502EE
:10046800031D382A20082402031C3B2A3C2A4B2A55
:100478002008A4022108031C210FA5022208031C3E
:10048800220FA6022308031C230FA70273140130AE
:100498000310A30CA20CA10CA00CFF3E031D4C2AB8
:1004A8000130F702031D592A5A2A212A7608A30087
:1004B8007508A2007408A1007308A0000800831240
:1004C8000313AC006430F2000030F3002C08A400E1
:1004D800A5012408F4002508F5000A128A119221C2
:1004E8000A128A11720883120313A6002608AB00A9
:1004F8002B08303EA4002408A7009C30A400240840
:10050800F2002B080A128A11E8230A128A118312B0
:1005180003132C07A5002508AC000A30F2000030B0
:10052800F3002C08A400A5012408F4002508F50010
:100538000A128A1192210A128A117208303E831215
:100548000313A6002608A8000A30F2000030F300C2
:100558002C08A400A5012408F4002508F5000A12B7
:100568008A11C2220A128A117208303E83120313BA
:10057800A6002608A900AA0127300800F801F51FDF
:10058800C62AC72ACE2AF409F509F40A0319F50A76
:10059800F801F80AF31FD12AD22AD72AF209F30957
:1005A800F20A0319F30A720873040319DC2ADD2A14
:1005B8000C2BF701F70AEB2A01300310F20DF30DAB
:1005C800FF3E031DE12A0130F6007608F707F31F06
:1005D800EE2AEF2AE02A73087502031DF52A72082D
:1005E8007402031CF82AF92AFF2A7208F402730815
:1005F800031CF503F50201300310F30CF20CFF3E67
:10060800031D002B0130F702031D0B2B0C2BEF2AC7
:1006180078080319102B112B162BF409F509F40A85
:100628000319F50A7508F3007408F2000800283069
:100638008312031394008316031391018312031387
:100648002808AC002908AD002A08AE002B08AF0026
:1006580002300310AC0DAD0DAE0DAF0DFF3E031D06
:100668002D2B2F08A3002E08A2002D08A1002C086E
:10067800A0000030A7003D30A6000930A5000030DA
:10068800A4000A128A11FB210A128A118312031389
:100698002008FF3E8316031393009401871507165D
:1006A8000800003083120313AB000030AA00253085
:1006B800A9008030A800AC01AC0A0A128A111F21D7
:1006C8000A128A1183160313850183120313850105
:1006D8008316031788018901823083120313B2003D
:1006E800DD30B100B10B762BB20B762B00308312C4
:1006F8000313AB000130AA008630A900A030A8007F
:100708000A128A111B230A128A110800F501F60140
:10071800A52B75087307840076080318760A7407F2
:10072800FF000A128A1100240A128A110A128A1179
:100738001F240A128A110130F5070318F60A00303F
:10074800F60775087307840076080318760A740795
:1007580083120313FF000A128A1100240A128A1155
:10076800003A031DB82BB92B8D2B08000A128A11E9
:1007780012240A128A118316031391150A128A1178
:1007880012240A128A11831203131308F400F501C4
:100798007408F6007508F7000A128A1112240A1262
:1007A8008A1172037304031DDA2BDB2BDF2B8316EC
:1007B80003139112E22B831603139116111677086F
:1007C800F3007608F2000800F500F401751CED2B23
:1007D800EE2BF22B7208F3007308F4070310F20DE6
:1007E8000310F50C7508031DFA2BFB2BEA2B740874
:0207F8000800F7
:10080000FF1B0A2C83137F1883170008840A03191F
:10081000FF0A08007F087F398A000408840A031948
:10082000FF0A8200831603131419172C182C122C9C
:1008300011081F39031D1D2C1E2C122C0800F2005C
:1008400083160313981C252C262C202C7208831247
:100850000313990008000A128A1112240A128A113D
:10086000720883120313930008000A128A111224DB
:100870000A128A1183160313111508000A128A112D
:1008800012240A128A118316031311140800710826
:0C0890008A00700E8300FE0E7E0E090030
:04400E00D420FF3F7C
:00000001FF
