:020000040000FA
:060000000A128A110C280F
:10000800FE00030EF2000A08F3000A128A11BF2844
:100018000A128A110F28F80183010A128A11E828A6
:10002800F4007408031D19281A28202883120313C2
:100038009F121F129F111F117403031D24282528C6
:100048002B28831203139F121F129F111F150230B2
:100058007406031D302831283728831203139F1292
:100068001F129F151F1103307406031D3C283D28DD
:100078004328831203139F121F129F151F15043064
:100088007406031D482849284F28831203139F121A
:100098001F169F111F1105307406031D542855287B
:1000A8005B28831203139F121F169F111F1506301A
:1000B8007406031D602861286728831203139F12A2
:1000C8001F169F151F1107307406031D6C286D2815
:1000D8007328831203139F121F169F151F150830CC
:1000E8007406031D782879287F28831203139F1626
:1000F8001F129F111F1109307406031D84288528BB
:100108008B28831203139F161F129F111F150A3085
:100118007406031D902891289728831203139F16AD
:100128001F129F151F110B307406031D9C289D2854
:10013800A328831203139F161F129F151F150C3037
:100148007406031DA828A928AF28831203139F1635
:100158001F169F111F110D307406031DB428B528F2
:10016800BB28831203139F161F169F111F15831296
:1001780003139F140800831203130C1FC428C528F7
:10018800D428C730F100C828F10BC728CB28CC28C1
:10019800831203131E08F1007108F8000C139F1452
:1001A8008C1DD728D828E12878080A128A114F21EF
:1001B8000A128A11831203138C1173088A00720EB3
:1001C8008300FE0E7E0E09000A128A1108210A1207
:1001D8008A110A128A113A210A128A1100300A1267
:1001E8008A1114200A128A11F401F501F60124304B
:1001F8000A128A1124210A128A11831203138516FE
:1002080001290A128A110C2883160317880189010B
:10021800081483160313851601308500860183129E
:100228000313860185018316031387168B170B1793
:10023800831203138C11831603138C15851608007B
:10024800F700831603138712771D2B292C293029D1
:100258007608940087153429740876049400871169
:10026800770875048312031394000800831203139C
:100278001F179F13831603131F129F129F138312B6
:1002880003130C13831603130C178B170B17831206
:1002980003131F140800F00070088312031393005F
:0202A80008004C
:04400E00D420FF3F7C
:00000001FF
